{
  "contractName": "AlgoPainterGweiItem",
  "abi": [
    {
      "inputs": [],
      "stateMutability": "nonpayable",
      "type": "constructor"
    },
    {
      "anonymous": false,
      "inputs": [
        {
          "indexed": true,
          "internalType": "address",
          "name": "owner",
          "type": "address"
        },
        {
          "indexed": true,
          "internalType": "address",
          "name": "approved",
          "type": "address"
        },
        {
          "indexed": true,
          "internalType": "uint256",
          "name": "tokenId",
          "type": "uint256"
        }
      ],
      "name": "Approval",
      "type": "event"
    },
    {
      "anonymous": false,
      "inputs": [
        {
          "indexed": true,
          "internalType": "address",
          "name": "owner",
          "type": "address"
        },
        {
          "indexed": true,
          "internalType": "address",
          "name": "operator",
          "type": "address"
        },
        {
          "indexed": false,
          "internalType": "bool",
          "name": "approved",
          "type": "bool"
        }
      ],
      "name": "ApprovalForAll",
      "type": "event"
    },
    {
      "anonymous": false,
      "inputs": [
        {
          "indexed": true,
          "internalType": "uint256",
          "name": "tokenId",
          "type": "uint256"
        },
        {
          "indexed": true,
          "internalType": "address",
          "name": "owner",
          "type": "address"
        },
        {
          "indexed": true,
          "internalType": "bytes32",
          "name": "hash",
          "type": "bytes32"
        }
      ],
      "name": "NewPaint",
      "type": "event"
    },
    {
      "anonymous": false,
      "inputs": [
        {
          "indexed": true,
          "internalType": "bytes32",
          "name": "role",
          "type": "bytes32"
        },
        {
          "indexed": true,
          "internalType": "bytes32",
          "name": "previousAdminRole",
          "type": "bytes32"
        },
        {
          "indexed": true,
          "internalType": "bytes32",
          "name": "newAdminRole",
          "type": "bytes32"
        }
      ],
      "name": "RoleAdminChanged",
      "type": "event"
    },
    {
      "anonymous": false,
      "inputs": [
        {
          "indexed": true,
          "internalType": "bytes32",
          "name": "role",
          "type": "bytes32"
        },
        {
          "indexed": true,
          "internalType": "address",
          "name": "account",
          "type": "address"
        },
        {
          "indexed": true,
          "internalType": "address",
          "name": "sender",
          "type": "address"
        }
      ],
      "name": "RoleGranted",
      "type": "event"
    },
    {
      "anonymous": false,
      "inputs": [
        {
          "indexed": true,
          "internalType": "bytes32",
          "name": "role",
          "type": "bytes32"
        },
        {
          "indexed": true,
          "internalType": "address",
          "name": "account",
          "type": "address"
        },
        {
          "indexed": true,
          "internalType": "address",
          "name": "sender",
          "type": "address"
        }
      ],
      "name": "RoleRevoked",
      "type": "event"
    },
    {
      "anonymous": false,
      "inputs": [
        {
          "indexed": true,
          "internalType": "address",
          "name": "from",
          "type": "address"
        },
        {
          "indexed": true,
          "internalType": "address",
          "name": "to",
          "type": "address"
        },
        {
          "indexed": true,
          "internalType": "uint256",
          "name": "tokenId",
          "type": "uint256"
        }
      ],
      "name": "Transfer",
      "type": "event"
    },
    {
      "inputs": [],
      "name": "DEFAULT_ADMIN_ROLE",
      "outputs": [
        {
          "internalType": "bytes32",
          "name": "",
          "type": "bytes32"
        }
      ],
      "stateMutability": "view",
      "type": "function"
    },
    {
      "inputs": [],
      "name": "VALIDATOR_ROLE",
      "outputs": [
        {
          "internalType": "bytes32",
          "name": "",
          "type": "bytes32"
        }
      ],
      "stateMutability": "view",
      "type": "function"
    },
    {
      "inputs": [
        {
          "internalType": "address",
          "name": "to",
          "type": "address"
        },
        {
          "internalType": "uint256",
          "name": "tokenId",
          "type": "uint256"
        }
      ],
      "name": "approve",
      "outputs": [],
      "stateMutability": "nonpayable",
      "type": "function"
    },
    {
      "inputs": [
        {
          "internalType": "address",
          "name": "owner",
          "type": "address"
        }
      ],
      "name": "balanceOf",
      "outputs": [
        {
          "internalType": "uint256",
          "name": "",
          "type": "uint256"
        }
      ],
      "stateMutability": "view",
      "type": "function"
    },
    {
      "inputs": [],
      "name": "baseURI",
      "outputs": [
        {
          "internalType": "string",
          "name": "",
          "type": "string"
        }
      ],
      "stateMutability": "view",
      "type": "function"
    },
    {
      "inputs": [
        {
          "internalType": "uint256",
          "name": "tokenId",
          "type": "uint256"
        }
      ],
      "name": "getApproved",
      "outputs": [
        {
          "internalType": "address",
          "name": "",
          "type": "address"
        }
      ],
      "stateMutability": "view",
      "type": "function"
    },
    {
      "inputs": [
        {
          "internalType": "bytes32",
          "name": "role",
          "type": "bytes32"
        }
      ],
      "name": "getRoleAdmin",
      "outputs": [
        {
          "internalType": "bytes32",
          "name": "",
          "type": "bytes32"
        }
      ],
      "stateMutability": "view",
      "type": "function"
    },
    {
      "inputs": [
        {
          "internalType": "bytes32",
          "name": "role",
          "type": "bytes32"
        },
        {
          "internalType": "uint256",
          "name": "index",
          "type": "uint256"
        }
      ],
      "name": "getRoleMember",
      "outputs": [
        {
          "internalType": "address",
          "name": "",
          "type": "address"
        }
      ],
      "stateMutability": "view",
      "type": "function"
    },
    {
      "inputs": [
        {
          "internalType": "bytes32",
          "name": "role",
          "type": "bytes32"
        }
      ],
      "name": "getRoleMemberCount",
      "outputs": [
        {
          "internalType": "uint256",
          "name": "",
          "type": "uint256"
        }
      ],
      "stateMutability": "view",
      "type": "function"
    },
    {
      "inputs": [
        {
          "internalType": "bytes32",
          "name": "role",
          "type": "bytes32"
        },
        {
          "internalType": "address",
          "name": "account",
          "type": "address"
        }
      ],
      "name": "grantRole",
      "outputs": [],
      "stateMutability": "nonpayable",
      "type": "function"
    },
    {
      "inputs": [
        {
          "internalType": "bytes32",
          "name": "role",
          "type": "bytes32"
        },
        {
          "internalType": "address",
          "name": "account",
          "type": "address"
        }
      ],
      "name": "hasRole",
      "outputs": [
        {
          "internalType": "bool",
          "name": "",
          "type": "bool"
        }
      ],
      "stateMutability": "view",
      "type": "function"
    },
    {
      "inputs": [
        {
          "internalType": "address",
          "name": "owner",
          "type": "address"
        },
        {
          "internalType": "address",
          "name": "operator",
          "type": "address"
        }
      ],
      "name": "isApprovedForAll",
      "outputs": [
        {
          "internalType": "bool",
          "name": "",
          "type": "bool"
        }
      ],
      "stateMutability": "view",
      "type": "function"
    },
    {
      "inputs": [],
      "name": "name",
      "outputs": [
        {
          "internalType": "string",
          "name": "",
          "type": "string"
        }
      ],
      "stateMutability": "view",
      "type": "function"
    },
    {
      "inputs": [
        {
          "internalType": "uint256",
          "name": "tokenId",
          "type": "uint256"
        }
      ],
      "name": "ownerOf",
      "outputs": [
        {
          "internalType": "address",
          "name": "",
          "type": "address"
        }
      ],
      "stateMutability": "view",
      "type": "function"
    },
    {
      "inputs": [
        {
          "internalType": "bytes32",
          "name": "role",
          "type": "bytes32"
        },
        {
          "internalType": "address",
          "name": "account",
          "type": "address"
        }
      ],
      "name": "renounceRole",
      "outputs": [],
      "stateMutability": "nonpayable",
      "type": "function"
    },
    {
      "inputs": [
        {
          "internalType": "bytes32",
          "name": "role",
          "type": "bytes32"
        },
        {
          "internalType": "address",
          "name": "account",
          "type": "address"
        }
      ],
      "name": "revokeRole",
      "outputs": [],
      "stateMutability": "nonpayable",
      "type": "function"
    },
    {
      "inputs": [
        {
          "internalType": "address",
          "name": "from",
          "type": "address"
        },
        {
          "internalType": "address",
          "name": "to",
          "type": "address"
        },
        {
          "internalType": "uint256",
          "name": "tokenId",
          "type": "uint256"
        }
      ],
      "name": "safeTransferFrom",
      "outputs": [],
      "stateMutability": "nonpayable",
      "type": "function"
    },
    {
      "inputs": [
        {
          "internalType": "address",
          "name": "from",
          "type": "address"
        },
        {
          "internalType": "address",
          "name": "to",
          "type": "address"
        },
        {
          "internalType": "uint256",
          "name": "tokenId",
          "type": "uint256"
        },
        {
          "internalType": "bytes",
          "name": "_data",
          "type": "bytes"
        }
      ],
      "name": "safeTransferFrom",
      "outputs": [],
      "stateMutability": "nonpayable",
      "type": "function"
    },
    {
      "inputs": [
        {
          "internalType": "address",
          "name": "operator",
          "type": "address"
        },
        {
          "internalType": "bool",
          "name": "approved",
          "type": "bool"
        }
      ],
      "name": "setApprovalForAll",
      "outputs": [],
      "stateMutability": "nonpayable",
      "type": "function"
    },
    {
      "inputs": [
        {
          "internalType": "bytes4",
          "name": "interfaceId",
          "type": "bytes4"
        }
      ],
      "name": "supportsInterface",
      "outputs": [
        {
          "internalType": "bool",
          "name": "",
          "type": "bool"
        }
      ],
      "stateMutability": "view",
      "type": "function"
    },
    {
      "inputs": [],
      "name": "symbol",
      "outputs": [
        {
          "internalType": "string",
          "name": "",
          "type": "string"
        }
      ],
      "stateMutability": "view",
      "type": "function"
    },
    {
      "inputs": [
        {
          "internalType": "uint256",
          "name": "index",
          "type": "uint256"
        }
      ],
      "name": "tokenByIndex",
      "outputs": [
        {
          "internalType": "uint256",
          "name": "",
          "type": "uint256"
        }
      ],
      "stateMutability": "view",
      "type": "function"
    },
    {
      "inputs": [
        {
          "internalType": "address",
          "name": "owner",
          "type": "address"
        },
        {
          "internalType": "uint256",
          "name": "index",
          "type": "uint256"
        }
      ],
      "name": "tokenOfOwnerByIndex",
      "outputs": [
        {
          "internalType": "uint256",
          "name": "",
          "type": "uint256"
        }
      ],
      "stateMutability": "view",
      "type": "function"
    },
    {
      "inputs": [
        {
          "internalType": "uint256",
          "name": "tokenId",
          "type": "uint256"
        }
      ],
      "name": "tokenURI",
      "outputs": [
        {
          "internalType": "string",
          "name": "",
          "type": "string"
        }
      ],
      "stateMutability": "view",
      "type": "function"
    },
    {
      "inputs": [],
      "name": "totalSupply",
      "outputs": [
        {
          "internalType": "uint256",
          "name": "",
          "type": "uint256"
        }
      ],
      "stateMutability": "view",
      "type": "function"
    },
    {
      "inputs": [
        {
          "internalType": "address",
          "name": "from",
          "type": "address"
        },
        {
          "internalType": "address",
          "name": "to",
          "type": "address"
        },
        {
          "internalType": "uint256",
          "name": "tokenId",
          "type": "uint256"
        }
      ],
      "name": "transferFrom",
      "outputs": [],
      "stateMutability": "nonpayable",
      "type": "function"
    },
    {
      "inputs": [
        {
          "internalType": "uint256",
          "name": "tokenId",
          "type": "uint256"
        },
        {
          "internalType": "string",
          "name": "tokenURI",
          "type": "string"
        }
      ],
      "name": "hashData",
      "outputs": [
        {
          "internalType": "bytes32",
          "name": "",
          "type": "bytes32"
        }
      ],
      "stateMutability": "pure",
      "type": "function"
    },
    {
      "inputs": [
        {
          "internalType": "bytes32",
          "name": "hash",
          "type": "bytes32"
        },
        {
          "internalType": "string",
          "name": "tokenURI",
          "type": "string"
        }
      ],
      "name": "hashMint",
      "outputs": [
        {
          "internalType": "bytes32",
          "name": "",
          "type": "bytes32"
        }
      ],
      "stateMutability": "pure",
      "type": "function"
    },
    {
      "inputs": [
        {
          "internalType": "bytes32",
          "name": "hash",
          "type": "bytes32"
        },
        {
          "internalType": "bytes",
          "name": "sig",
          "type": "bytes"
        }
      ],
      "name": "recover",
      "outputs": [
        {
          "internalType": "address",
          "name": "",
          "type": "address"
        }
      ],
      "stateMutability": "pure",
      "type": "function"
    },
    {
      "inputs": [
        {
          "internalType": "uint256",
          "name": "paitingsCount",
          "type": "uint256"
        }
      ],
      "name": "getMinimumAmount",
      "outputs": [
        {
          "internalType": "uint256",
          "name": "",
          "type": "uint256"
        }
      ],
      "stateMutability": "pure",
      "type": "function"
    },
    {
      "inputs": [
        {
          "internalType": "bytes32",
          "name": "hash",
          "type": "bytes32"
        },
        {
          "internalType": "string",
          "name": "tokenURI",
          "type": "string"
        },
        {
          "internalType": "bytes",
          "name": "signature",
          "type": "bytes"
        }
      ],
      "name": "mint",
      "outputs": [
        {
          "internalType": "uint256",
          "name": "",
          "type": "uint256"
        }
      ],
      "stateMutability": "payable",
      "type": "function"
    },
    {
      "inputs": [],
      "name": "withdraw",
      "outputs": [],
      "stateMutability": "nonpayable",
      "type": "function"
    },
    {
      "inputs": [
        {
          "internalType": "uint256",
          "name": "tokenId",
          "type": "uint256"
        },
        {
          "internalType": "string",
          "name": "tokenURI",
          "type": "string"
        },
        {
          "internalType": "bytes",
          "name": "signature",
          "type": "bytes"
        }
      ],
      "name": "updateTokenURI",
      "outputs": [],
      "stateMutability": "nonpayable",
      "type": "function"
    }
  ],
  "bytecode": "0x60806040523480156200001157600080fd5b506040518060400160405280601681526020017f416c676f205061696e7465722047776569204974656d000000000000000000008152506040518060400160405280600481526020017f4150474900000000000000000000000000000000000000000000000000000000815250620000a26000801b620000966200017d60201b60201c565b6200018560201b60201c565b620000ba6301ffc9a760e01b6200019b60201b60201c565b8160079080519060200190620000d29291906200041c565b508060089080519060200190620000eb9291906200041c565b50620001046380ac58cd60e01b6200019b60201b60201c565b6200011c635b5e139f60e01b6200019b60201b60201c565b6200013463780e9d6360e01b6200019b60201b60201c565b505033600d60006101000a81548173ffffffffffffffffffffffffffffffffffffffff021916908373ffffffffffffffffffffffffffffffffffffffff160217905550620004d2565b600033905090565b620001978282620002a460201b60201c565b5050565b63ffffffff60e01b817bffffffffffffffffffffffffffffffffffffffffffffffffffffffff1916141562000238576040517f08c379a000000000000000000000000000000000000000000000000000000000815260040180806020018281038252601c8152602001807f4552433136353a20696e76616c696420696e746572666163652069640000000081525060200191505060405180910390fd5b6001806000837bffffffffffffffffffffffffffffffffffffffffffffffffffffffff19167bffffffffffffffffffffffffffffffffffffffffffffffffffffffff1916815260200190815260200160002060006101000a81548160ff02191690831515021790555050565b620002d2816000808581526020019081526020016000206000016200034760201b620029081790919060201c565b156200034357620002e86200017d60201b60201c565b73ffffffffffffffffffffffffffffffffffffffff168173ffffffffffffffffffffffffffffffffffffffff16837f2f8788117e7eff1d82e926ec794901d17c78024a50270940304540a733656f0d60405160405180910390a45b5050565b600062000377836000018373ffffffffffffffffffffffffffffffffffffffff1660001b6200037f60201b60201c565b905092915050565b6000620003938383620003f960201b60201c565b620003ee578260000182908060018154018082558091505060019003906000526020600020016000909190919091505582600001805490508360010160008481526020019081526020016000208190555060019050620003f3565b600090505b92915050565b600080836001016000848152602001908152602001600020541415905092915050565b828054600181600116156101000203166002900490600052602060002090601f016020900481019282620004545760008555620004a0565b82601f106200046f57805160ff1916838001178555620004a0565b82800160010185558215620004a0579182015b828111156200049f57825182559160200191906001019062000482565b5b509050620004af9190620004b3565b5090565b5b80821115620004ce576000816000905550600101620004b4565b5090565b61427c80620004e26000396000f3fe6080604052600436106101ee5760003560e01c80636c0360eb1161010d578063b88d4fde116100a0578063c49baebe1161006f578063c49baebe1461103c578063c87b56dd14611067578063ca15c8731461111b578063d547741f1461116a578063e985e9c5146111c5576101ee565b8063b88d4fde14610cc8578063be7f24d014610dda578063c3606e4314610ebf578063c37fd74914610fed576101ee565b8063929a0880116100dc578063929a088014610aca57806395d89b4114610bb0578063a217fddf14610c40578063a22cb46514610c6b576101ee565b80636c0360eb146108f557806370a08231146109855780639010d07c146109ea57806391d1485414610a59576101ee565b8063248a9ca3116101855780633ccfd60b116101545780633ccfd60b146107af57806342842e0e146107c65780634f6ccce7146108415780636352211e14610890576101ee565b8063248a9ca31461063b5780632f2ff15d1461068a5780632f745c59146106e557806336568abe14610754576101ee565b8063095ea7b3116101c1578063095ea7b31461043e57806318160ddd1461049957806319045a25146104c457806323b872dd146105c0576101ee565b806301ffc9a7146101f3578063035e4ca01461026357806306fdde0314610349578063081812fc146103d9575b600080fd5b3480156101ff57600080fd5b5061024b6004803603602081101561021657600080fd5b8101908080357bffffffffffffffffffffffffffffffffffffffffffffffffffffffff1916906020019092919050505061124c565b60405180821515815260200191505060405180910390f35b34801561026f57600080fd5b506103336004803603604081101561028657600080fd5b8101908080359060200190929190803590602001906401000000008111156102ad57600080fd5b8201836020820111156102bf57600080fd5b803590602001918460018302840111640100000000831117156102e157600080fd5b91908080601f016020809104026020016040519081016040528093929190818152602001838380828437600081840152601f19601f8201169050808301925050505050505091929192905050506112b4565b6040518082815260200191505060405180910390f35b34801561035557600080fd5b5061035e611338565b6040518080602001828103825283818151815260200191508051906020019080838360005b8381101561039e578082015181840152602081019050610383565b50505050905090810190601f1680156103cb5780820380516001836020036101000a031916815260200191505b509250505060405180910390f35b3480156103e557600080fd5b50610412600480360360208110156103fc57600080fd5b81019080803590602001909291905050506113da565b604051808273ffffffffffffffffffffffffffffffffffffffff16815260200191505060405180910390f35b34801561044a57600080fd5b506104976004803603604081101561046157600080fd5b81019080803573ffffffffffffffffffffffffffffffffffffffff16906020019092919080359060200190929190505050611475565b005b3480156104a557600080fd5b506104ae6115b9565b6040518082815260200191505060405180910390f35b3480156104d057600080fd5b50610594600480360360408110156104e757600080fd5b81019080803590602001909291908035906020019064010000000081111561050e57600080fd5b82018360208201111561052057600080fd5b8035906020019184600183028401116401000000008311171561054257600080fd5b91908080601f016020809104026020016040519081016040528093929190818152602001838380828437600081840152601f19601f8201169050808301925050505050505091929192905050506115ca565b604051808273ffffffffffffffffffffffffffffffffffffffff16815260200191505060405180910390f35b3480156105cc57600080fd5b50610639600480360360608110156105e357600080fd5b81019080803573ffffffffffffffffffffffffffffffffffffffff169060200190929190803573ffffffffffffffffffffffffffffffffffffffff16906020019092919080359060200190929190505050611763565b005b34801561064757600080fd5b506106746004803603602081101561065e57600080fd5b81019080803590602001909291905050506117d9565b6040518082815260200191505060405180910390f35b34801561069657600080fd5b506106e3600480360360408110156106ad57600080fd5b8101908080359060200190929190803573ffffffffffffffffffffffffffffffffffffffff1690602001909291905050506117f8565b005b3480156106f157600080fd5b5061073e6004803603604081101561070857600080fd5b81019080803573ffffffffffffffffffffffffffffffffffffffff16906020019092919080359060200190929190505050611881565b6040518082815260200191505060405180910390f35b34801561076057600080fd5b506107ad6004803603604081101561077757600080fd5b8101908080359060200190929190803573ffffffffffffffffffffffffffffffffffffffff1690602001909291905050506118dc565b005b3480156107bb57600080fd5b506107c4611975565b005b3480156107d257600080fd5b5061083f600480360360608110156107e957600080fd5b81019080803573ffffffffffffffffffffffffffffffffffffffff169060200190929190803573ffffffffffffffffffffffffffffffffffffffff16906020019092919080359060200190929190505050611a86565b005b34801561084d57600080fd5b5061087a6004803603602081101561086457600080fd5b8101908080359060200190929190505050611aa6565b6040518082815260200191505060405180910390f35b34801561089c57600080fd5b506108c9600480360360208110156108b357600080fd5b8101908080359060200190929190505050611ac9565b604051808273ffffffffffffffffffffffffffffffffffffffff16815260200191505060405180910390f35b34801561090157600080fd5b5061090a611b00565b6040518080602001828103825283818151815260200191508051906020019080838360005b8381101561094a57808201518184015260208101905061092f565b50505050905090810190601f1680156109775780820380516001836020036101000a031916815260200191505b509250505060405180910390f35b34801561099157600080fd5b506109d4600480360360208110156109a857600080fd5b81019080803573ffffffffffffffffffffffffffffffffffffffff169060200190929190505050611ba2565b6040518082815260200191505060405180910390f35b3480156109f657600080fd5b50610a2d60048036036040811015610a0d57600080fd5b810190808035906020019092919080359060200190929190505050611c77565b604051808273ffffffffffffffffffffffffffffffffffffffff16815260200191505060405180910390f35b348015610a6557600080fd5b50610ab260048036036040811015610a7c57600080fd5b8101908080359060200190929190803573ffffffffffffffffffffffffffffffffffffffff169060200190929190505050611ca8565b60405180821515815260200191505060405180910390f35b348015610ad657600080fd5b50610b9a60048036036040811015610aed57600080fd5b810190808035906020019092919080359060200190640100000000811115610b1457600080fd5b820183602082011115610b2657600080fd5b80359060200191846001830284011164010000000083111715610b4857600080fd5b91908080601f016020809104026020016040519081016040528093929190818152602001838380828437600081840152601f19601f820116905080830192505050505050509192919290505050611cd9565b6040518082815260200191505060405180910390f35b348015610bbc57600080fd5b50610bc5611d5d565b6040518080602001828103825283818151815260200191508051906020019080838360005b83811015610c05578082015181840152602081019050610bea565b50505050905090810190601f168015610c325780820380516001836020036101000a031916815260200191505b509250505060405180910390f35b348015610c4c57600080fd5b50610c55611dff565b6040518082815260200191505060405180910390f35b348015610c7757600080fd5b50610cc660048036036040811015610c8e57600080fd5b81019080803573ffffffffffffffffffffffffffffffffffffffff169060200190929190803515159060200190929190505050611e06565b005b348015610cd457600080fd5b50610dd860048036036080811015610ceb57600080fd5b81019080803573ffffffffffffffffffffffffffffffffffffffff169060200190929190803573ffffffffffffffffffffffffffffffffffffffff1690602001909291908035906020019092919080359060200190640100000000811115610d5257600080fd5b820183602082011115610d6457600080fd5b80359060200191846001830284011164010000000083111715610d8657600080fd5b91908080601f016020809104026020016040519081016040528093929190818152602001838380828437600081840152601f19601f820116905080830192505050505050509192919290505050611fbc565b005b348015610de657600080fd5b50610ebd60048036036060811015610dfd57600080fd5b810190808035906020019092919080359060200190640100000000811115610e2457600080fd5b820183602082011115610e3657600080fd5b80359060200191846001830284011164010000000083111715610e5857600080fd5b909192939192939080359060200190640100000000811115610e7957600080fd5b820183602082011115610e8b57600080fd5b80359060200191846001830284011164010000000083111715610ead57600080fd5b9091929391929390505050612034565b005b610fd760048036036060811015610ed557600080fd5b810190808035906020019092919080359060200190640100000000811115610efc57600080fd5b820183602082011115610f0e57600080fd5b80359060200191846001830284011164010000000083111715610f3057600080fd5b91908080601f016020809104026020016040519081016040528093929190818152602001838380828437600081840152601f19601f82011690508083019250505050505050919291929080359060200190640100000000811115610f9357600080fd5b820183602082011115610fa557600080fd5b80359060200191846001830284011164010000000083111715610fc757600080fd5b9091929391929390505050612234565b6040518082815260200191505060405180910390f35b348015610ff957600080fd5b506110266004803603602081101561101057600080fd5b81019080803590602001909291905050506123b6565b6040518082815260200191505060405180910390f35b34801561104857600080fd5b506110516124d0565b6040518082815260200191505060405180910390f35b34801561107357600080fd5b506110a06004803603602081101561108a57600080fd5b81019080803590602001909291905050506124f4565b6040518080602001828103825283818151815260200191508051906020019080838360005b838110156110e05780820151818401526020810190506110c5565b50505050905090810190601f16801561110d5780820380516001836020036101000a031916815260200191505b509250505060405180910390f35b34801561112757600080fd5b506111546004803603602081101561113e57600080fd5b81019080803590602001909291905050506127c5565b6040518082815260200191505060405180910390f35b34801561117657600080fd5b506111c36004803603604081101561118d57600080fd5b8101908080359060200190929190803573ffffffffffffffffffffffffffffffffffffffff1690602001909291905050506127eb565b005b3480156111d157600080fd5b50611234600480360360408110156111e857600080fd5b81019080803573ffffffffffffffffffffffffffffffffffffffff169060200190929190803573ffffffffffffffffffffffffffffffffffffffff169060200190929190505050612874565b60405180821515815260200191505060405180910390f35b600060016000837bffffffffffffffffffffffffffffffffffffffffffffffffffffffff19167bffffffffffffffffffffffffffffffffffffffffffffffffffffffff1916815260200190815260200160002060009054906101000a900460ff169050919050565b600082826040516020018083815260200182805190602001908083835b602083106112f457805182526020820191506020810190506020830392506112d1565b6001836020036101000a0380198251168184511680821785525050505050509050019250505060405160208183030381529060405280519060200120905092915050565b606060078054600181600116156101000203166002900480601f0160208091040260200160405190810160405280929190818152602001828054600181600116156101000203166002900480156113d05780601f106113a5576101008083540402835291602001916113d0565b820191906000526020600020905b8154815290600101906020018083116113b357829003601f168201915b5050505050905090565b60006113e582612938565b61143a576040517f08c379a000000000000000000000000000000000000000000000000000000000815260040180806020018281038252602c8152602001806140cc602c913960400191505060405180910390fd5b6005600083815260200190815260200160002060009054906101000a900473ffffffffffffffffffffffffffffffffffffffff169050919050565b600061148082611ac9565b90508073ffffffffffffffffffffffffffffffffffffffff168373ffffffffffffffffffffffffffffffffffffffff161415611507576040517f08c379a00000000000000000000000000000000000000000000000000000000081526004018080602001828103825260218152602001806141a16021913960400191505060405180910390fd5b8073ffffffffffffffffffffffffffffffffffffffff16611526612955565b73ffffffffffffffffffffffffffffffffffffffff16148061155557506115548161154f612955565b612874565b5b6115aa576040517f08c379a0000000000000000000000000000000000000000000000000000000008152600401808060200182810382526038815260200180613ffa6038913960400191505060405180910390fd5b6115b4838361295d565b505050565b60006115c56003612a16565b905090565b60008060008060418551146115e5576000935050505061175d565b6020850151925060408501519150606085015160001a9050601b8160ff16101561161057601b810190505b601b8160ff16141580156116285750601c8160ff1614155b15611639576000935050505061175d565b60606040518060400160405280601c81526020017f19457468657265756d205369676e6564204d6573736167653a0a3332000000008152509050600081886040516020018083805190602001908083835b602083106116ad578051825260208201915060208101905060208303925061168a565b6001836020036101000a0380198251168184511680821785525050505050509050018281526020019250505060405160208183030381529060405280519060200120905060018184878760405160008152602001604052604051808581526020018460ff1681526020018381526020018281526020019450505050506020604051602081039080840390855afa15801561174b573d6000803e3d6000fd5b50505060206040510351955050505050505b92915050565b61177461176e612955565b82612a2b565b6117c9576040517f08c379a00000000000000000000000000000000000000000000000000000000081526004018080602001828103825260318152602001806141c26031913960400191505060405180910390fd5b6117d4838383612b1f565b505050565b6000806000838152602001908152602001600020600201549050919050565b61181e60008084815260200190815260200160002060020154611819612955565b611ca8565b611873576040517f08c379a000000000000000000000000000000000000000000000000000000000815260040180806020018281038252602f815260200180613ea9602f913960400191505060405180910390fd5b61187d8282612d62565b5050565b60006118d482600260008673ffffffffffffffffffffffffffffffffffffffff1673ffffffffffffffffffffffffffffffffffffffff168152602001908152602001600020612df590919063ffffffff16565b905092915050565b6118e4612955565b73ffffffffffffffffffffffffffffffffffffffff168173ffffffffffffffffffffffffffffffffffffffff1614611967576040517f08c379a000000000000000000000000000000000000000000000000000000000815260040180806020018281038252602f815260200180614218602f913960400191505060405180910390fd5b6119718282612e0f565b5050565b600d60009054906101000a900473ffffffffffffffffffffffffffffffffffffffff1673ffffffffffffffffffffffffffffffffffffffff163373ffffffffffffffffffffffffffffffffffffffff1614611a1b576040517f08c379a0000000000000000000000000000000000000000000000000000000008152600401808060200182810382526027815260200180613f0a6027913960400191505060405180910390fd5b600d60009054906101000a900473ffffffffffffffffffffffffffffffffffffffff1673ffffffffffffffffffffffffffffffffffffffff166108fc479081150290604051600060405180830381858888f19350505050158015611a83573d6000803e3d6000fd5b50565b611aa183838360405180602001604052806000815250611fbc565b505050565b600080611abd836003612ea290919063ffffffff16565b50905080915050919050565b6000611af98260405180606001604052806029815260200161405c602991396003612ece9092919063ffffffff16565b9050919050565b6060600a8054600181600116156101000203166002900480601f016020809104026020016040519081016040528092919081815260200182805460018160011615610100020316600290048015611b985780601f10611b6d57610100808354040283529160200191611b98565b820191906000526020600020905b815481529060010190602001808311611b7b57829003601f168201915b5050505050905090565b60008073ffffffffffffffffffffffffffffffffffffffff168273ffffffffffffffffffffffffffffffffffffffff161415611c29576040517f08c379a000000000000000000000000000000000000000000000000000000000815260040180806020018281038252602a815260200180614032602a913960400191505060405180910390fd5b611c70600260008473ffffffffffffffffffffffffffffffffffffffff1673ffffffffffffffffffffffffffffffffffffffff168152602001908152602001600020612eed565b9050919050565b6000611ca082600080868152602001908152602001600020600001612f0290919063ffffffff16565b905092915050565b6000611cd182600080868152602001908152602001600020600001612f1c90919063ffffffff16565b905092915050565b600082826040516020018083815260200182805190602001908083835b60208310611d195780518252602082019150602081019050602083039250611cf6565b6001836020036101000a0380198251168184511680821785525050505050509050019250505060405160208183030381529060405280519060200120905092915050565b606060088054600181600116156101000203166002900480601f016020809104026020016040519081016040528092919081815260200182805460018160011615610100020316600290048015611df55780601f10611dca57610100808354040283529160200191611df5565b820191906000526020600020905b815481529060010190602001808311611dd857829003601f168201915b5050505050905090565b6000801b81565b611e0e612955565b73ffffffffffffffffffffffffffffffffffffffff168273ffffffffffffffffffffffffffffffffffffffff161415611eaf576040517f08c379a00000000000000000000000000000000000000000000000000000000081526004018080602001828103825260198152602001807f4552433732313a20617070726f766520746f2063616c6c65720000000000000081525060200191505060405180910390fd5b8060066000611ebc612955565b73ffffffffffffffffffffffffffffffffffffffff1673ffffffffffffffffffffffffffffffffffffffff16815260200190815260200160002060008473ffffffffffffffffffffffffffffffffffffffff1673ffffffffffffffffffffffffffffffffffffffff16815260200190815260200160002060006101000a81548160ff0219169083151502179055508173ffffffffffffffffffffffffffffffffffffffff16611f69612955565b73ffffffffffffffffffffffffffffffffffffffff167f17307eab39ab6107e8899845ad3d59bd9653f200f220920489ca2b5937696c318360405180821515815260200191505060405180910390a35050565b611fcd611fc7612955565b83612a2b565b612022576040517f08c379a00000000000000000000000000000000000000000000000000000000081526004018080602001828103825260318152602001806141c26031913960400191505060405180910390fd5b61202e84848484612f4c565b50505050565b60006120848686868080601f016020809104026020016040519081016040528093929190818152602001838380828437600081840152601f19601f82011690508083019250505050505050611cd9565b905060006120d68285858080601f016020809104026020016040519081016040528093929190818152602001838380828437600081840152601f19601f820116905080830192505050505050506115ca565b9050600073ffffffffffffffffffffffffffffffffffffffff168173ffffffffffffffffffffffffffffffffffffffff16141561215e576040517f08c379a00000000000000000000000000000000000000000000000000000000081526004018080602001828103825260258152602001806140a76025913960400191505060405180910390fd5b6121887f21702c8af46127c7fa207f89d0b0a8441bb32959a0ac7df790e9ab1a25c9892682611ca8565b6121dd576040517f08c379a00000000000000000000000000000000000000000000000000000000081526004018080602001828103825260258152602001806141f36025913960400191505060405180910390fd5b61222b8787878080601f016020809104026020016040519081016040528093929190818152602001838380828437600081840152601f19601f82011690508083019250505050505050612fbe565b50505050505050565b6000613907600e5410612292576040517f08c379a000000000000000000000000000000000000000000000000000000000815260040180806020018281038252602581526020018061417c6025913960400191505060405180910390fd5b600061229f600e546123b6565b9050803410156122fa576040517f08c379a0000000000000000000000000000000000000000000000000000000008152600401808060200182810382526023815260200180613f316023913960400191505060405180910390fd5b612304600b613048565b6000612310600b61305e565b905061231c338261306c565b6123268187612fbe565b6001600c600089815260200190815260200160002060006101000a81548160ff021916908315150217905550600e60008154809291906001019190505550863373ffffffffffffffffffffffffffffffffffffffff16827fabaf4f76d21b13fdfdf1e3dfe2f8ecb8c3ceb66f127d31f3371d0f8acac160f660405160405180910390a48092505050949350505050565b600080600090506103e883116123d557662386f26fc1000090506124c7565b610bb883116123ed57666a94d74f43000090506124c6565b611770831161240557668e1bc9bf04000090506124c5565b612710831161241d5766b1a2bc2ec5000090506124c4565b6136b083116124355766f8b0a10e47000090506124c3565b6137dc831161244e5767016345785d8a000090506124c2565b6138a48311612467576702386f26fc10000090506124c1565b6138d68311612480576703bf3b91c95b000090506124c0565b6138f08311612499576706ccd46763f1000090506124bf565b6138fe83116124b257670cc47f20295c000090506124be565b6719ac8532c279000090505b5b5b5b5b5b5b5b5b5b80915050919050565b7f21702c8af46127c7fa207f89d0b0a8441bb32959a0ac7df790e9ab1a25c9892681565b60606124ff82612938565b612554576040517f08c379a000000000000000000000000000000000000000000000000000000000815260040180806020018281038252602f81526020018061414d602f913960400191505060405180910390fd5b6060600960008481526020019081526020016000208054600181600116156101000203166002900480601f0160208091040260200160405190810160405280929190818152602001828054600181600116156101000203166002900480156125fd5780601f106125d2576101008083540402835291602001916125fd565b820191906000526020600020905b8154815290600101906020018083116125e057829003601f168201915b50505050509050606061260e611b00565b90506000815114156126245781925050506127c0565b6000825111156126f55780826040516020018083805190602001908083835b602083106126665780518252602082019150602081019050602083039250612643565b6001836020036101000a03801982511681845116808217855250505050505090500182805190602001908083835b602083106126b75780518252602082019150602081019050602083039250612694565b6001836020036101000a03801982511681845116808217855250505050505090500192505050604051602081830303815290604052925050506127c0565b806126ff85613260565b6040516020018083805190602001908083835b602083106127355780518252602082019150602081019050602083039250612712565b6001836020036101000a03801982511681845116808217855250505050505090500182805190602001908083835b602083106127865780518252602082019150602081019050602083039250612763565b6001836020036101000a03801982511681845116808217855250505050505090500192505050604051602081830303815290604052925050505b919050565b60006127e46000808481526020019081526020016000206000016133a7565b9050919050565b6128116000808481526020019081526020016000206002015461280c612955565b611ca8565b612866576040517f08c379a0000000000000000000000000000000000000000000000000000000008152600401808060200182810382526030815260200180613fca6030913960400191505060405180910390fd5b6128708282612e0f565b5050565b6000600660008473ffffffffffffffffffffffffffffffffffffffff1673ffffffffffffffffffffffffffffffffffffffff16815260200190815260200160002060008373ffffffffffffffffffffffffffffffffffffffff1673ffffffffffffffffffffffffffffffffffffffff16815260200190815260200160002060009054906101000a900460ff16905092915050565b6000612930836000018373ffffffffffffffffffffffffffffffffffffffff1660001b6133bc565b905092915050565b600061294e82600361342c90919063ffffffff16565b9050919050565b600033905090565b816005600083815260200190815260200160002060006101000a81548173ffffffffffffffffffffffffffffffffffffffff021916908373ffffffffffffffffffffffffffffffffffffffff160217905550808273ffffffffffffffffffffffffffffffffffffffff166129d083611ac9565b73ffffffffffffffffffffffffffffffffffffffff167f8c5be1e5ebec7d5bd14f71427d1e84f3dd0314c0f7b2291e5b200ac8c7c3b92560405160405180910390a45050565b6000612a2482600001613446565b9050919050565b6000612a3682612938565b612a8b576040517f08c379a000000000000000000000000000000000000000000000000000000000815260040180806020018281038252602c815260200180613f9e602c913960400191505060405180910390fd5b6000612a9683611ac9565b90508073ffffffffffffffffffffffffffffffffffffffff168473ffffffffffffffffffffffffffffffffffffffff161480612b0557508373ffffffffffffffffffffffffffffffffffffffff16612aed846113da565b73ffffffffffffffffffffffffffffffffffffffff16145b80612b165750612b158185612874565b5b91505092915050565b8273ffffffffffffffffffffffffffffffffffffffff16612b3f82611ac9565b73ffffffffffffffffffffffffffffffffffffffff1614612bab576040517f08c379a00000000000000000000000000000000000000000000000000000000081526004018080602001828103825260298152602001806141246029913960400191505060405180910390fd5b600073ffffffffffffffffffffffffffffffffffffffff168273ffffffffffffffffffffffffffffffffffffffff161415612c31576040517f08c379a0000000000000000000000000000000000000000000000000000000008152600401808060200182810382526024815260200180613f546024913960400191505060405180910390fd5b612c3c838383613457565b612c4760008261295d565b612c9881600260008673ffffffffffffffffffffffffffffffffffffffff1673ffffffffffffffffffffffffffffffffffffffff16815260200190815260200160002061345c90919063ffffffff16565b50612cea81600260008573ffffffffffffffffffffffffffffffffffffffff1673ffffffffffffffffffffffffffffffffffffffff16815260200190815260200160002061347690919063ffffffff16565b50612d01818360036134909092919063ffffffff16565b50808273ffffffffffffffffffffffffffffffffffffffff168473ffffffffffffffffffffffffffffffffffffffff167fddf252ad1be2c89b69c2b068fc378daa952ba7f163c4a11628f55a4df523b3ef60405160405180910390a4505050565b612d898160008085815260200190815260200160002060000161290890919063ffffffff16565b15612df157612d96612955565b73ffffffffffffffffffffffffffffffffffffffff168173ffffffffffffffffffffffffffffffffffffffff16837f2f8788117e7eff1d82e926ec794901d17c78024a50270940304540a733656f0d60405160405180910390a45b5050565b6000612e0483600001836134c5565b60001c905092915050565b612e368160008085815260200190815260200160002060000161354890919063ffffffff16565b15612e9e57612e43612955565b73ffffffffffffffffffffffffffffffffffffffff168173ffffffffffffffffffffffffffffffffffffffff16837ff6391f5c32d9c69d2a47ea670b442974b53935d1edc7fd64eb21e047a839171b60405160405180910390a45b5050565b600080600080612eb58660000186613578565b915091508160001c8160001c9350935050509250929050565b6000612ee1846000018460001b84613611565b60001c90509392505050565b6000612efb82600001613707565b9050919050565b6000612f1183600001836134c5565b60001c905092915050565b6000612f44836000018373ffffffffffffffffffffffffffffffffffffffff1660001b613718565b905092915050565b612f57848484612b1f565b612f638484848461373b565b612fb8576040517f08c379a0000000000000000000000000000000000000000000000000000000008152600401808060200182810382526032815260200180613ed86032913960400191505060405180910390fd5b50505050565b612fc782612938565b61301c576040517f08c379a000000000000000000000000000000000000000000000000000000000815260040180806020018281038252602c8152602001806140f8602c913960400191505060405180910390fd5b80600960008481526020019081526020016000209080519060200190613043929190613ddb565b505050565b6001816000016000828254019250508190555050565b600081600001549050919050565b600073ffffffffffffffffffffffffffffffffffffffff168273ffffffffffffffffffffffffffffffffffffffff16141561310f576040517f08c379a00000000000000000000000000000000000000000000000000000000081526004018080602001828103825260208152602001807f4552433732313a206d696e7420746f20746865207a65726f206164647265737381525060200191505060405180910390fd5b61311881612938565b1561318b576040517f08c379a000000000000000000000000000000000000000000000000000000000815260040180806020018281038252601c8152602001807f4552433732313a20746f6b656e20616c7265616479206d696e7465640000000081525060200191505060405180910390fd5b61319760008383613457565b6131e881600260008573ffffffffffffffffffffffffffffffffffffffff1673ffffffffffffffffffffffffffffffffffffffff16815260200190815260200160002061347690919063ffffffff16565b506131ff818360036134909092919063ffffffff16565b50808273ffffffffffffffffffffffffffffffffffffffff16600073ffffffffffffffffffffffffffffffffffffffff167fddf252ad1be2c89b69c2b068fc378daa952ba7f163c4a11628f55a4df523b3ef60405160405180910390a45050565b606060008214156132a8576040518060400160405280600181526020017f300000000000000000000000000000000000000000000000000000000000000081525090506133a2565b600082905060005b600082146132d2578080600101915050600a82816132ca57fe5b0491506132b0565b60608167ffffffffffffffff811180156132eb57600080fd5b506040519080825280601f01601f19166020018201604052801561331e5781602001600182028036833780820191505090505b50905060006001830390508593505b6000841461339a57600a848161333f57fe5b0660300160f81b8282806001900393508151811061335957fe5b60200101907effffffffffffffffffffffffffffffffffffffffffffffffffffffffffffff1916908160001a905350600a848161339257fe5b04935061332d565b819450505050505b919050565b60006133b582600001613707565b9050919050565b60006133c88383613718565b613421578260000182908060018154018082558091505060019003906000526020600020016000909190919091505582600001805490508360010160008481526020019081526020016000208190555060019050613426565b600090505b92915050565b600061343e836000018360001b613954565b905092915050565b600081600001805490509050919050565b505050565b600061346e836000018360001b613977565b905092915050565b6000613488836000018360001b6133bc565b905092915050565b60006134bc846000018460001b8473ffffffffffffffffffffffffffffffffffffffff1660001b613a5f565b90509392505050565b600081836000018054905011613526576040517f08c379a0000000000000000000000000000000000000000000000000000000008152600401808060200182810382526022815260200180613e876022913960400191505060405180910390fd5b82600001828154811061353557fe5b9060005260206000200154905092915050565b6000613570836000018373ffffffffffffffffffffffffffffffffffffffff1660001b613977565b905092915050565b600080828460000180549050116135da576040517f08c379a00000000000000000000000000000000000000000000000000000000081526004018080602001828103825260228152602001806140856022913960400191505060405180910390fd5b60008460000184815481106135eb57fe5b906000526020600020906002020190508060000154816001015492509250509250929050565b600080846001016000858152602001908152602001600020549050600081141583906136d8576040517f08c379a00000000000000000000000000000000000000000000000000000000081526004018080602001828103825283818151815260200191508051906020019080838360005b8381101561369d578082015181840152602081019050613682565b50505050905090810190601f1680156136ca5780820380516001836020036101000a031916815260200191505b509250505060405180910390fd5b508460000160018203815481106136eb57fe5b9060005260206000209060020201600101549150509392505050565b600081600001805490509050919050565b600080836001016000848152602001908152602001600020541415905092915050565b600061375c8473ffffffffffffffffffffffffffffffffffffffff16613b3b565b613769576001905061394c565b60606138d363150b7a0260e01b61377e612955565b888787604051602401808573ffffffffffffffffffffffffffffffffffffffff1681526020018473ffffffffffffffffffffffffffffffffffffffff16815260200183815260200180602001828103825283818151815260200191508051906020019080838360005b838110156138025780820151818401526020810190506137e7565b50505050905090810190601f16801561382f5780820380516001836020036101000a031916815260200191505b5095505050505050604051602081830303815290604052907bffffffffffffffffffffffffffffffffffffffffffffffffffffffff19166020820180517bffffffffffffffffffffffffffffffffffffffffffffffffffffffff8381831617835250505050604051806060016040528060328152602001613ed8603291398773ffffffffffffffffffffffffffffffffffffffff16613b4e9092919063ffffffff16565b905060008180602001905160208110156138ec57600080fd5b8101908080519060200190929190505050905063150b7a0260e01b7bffffffffffffffffffffffffffffffffffffffffffffffffffffffff1916817bffffffffffffffffffffffffffffffffffffffffffffffffffffffff191614925050505b949350505050565b600080836001016000848152602001908152602001600020541415905092915050565b60008083600101600084815260200190815260200160002054905060008114613a5357600060018203905060006001866000018054905003905060008660000182815481106139c257fe5b90600052602060002001549050808760000184815481106139df57fe5b9060005260206000200181905550600183018760010160008381526020019081526020016000208190555086600001805480613a1757fe5b60019003818190600052602060002001600090559055866001016000878152602001908152602001600020600090556001945050505050613a59565b60009150505b92915050565b6000808460010160008581526020019081526020016000205490506000811415613b0657846000016040518060400160405280868152602001858152509080600181540180825580915050600190039060005260206000209060020201600090919091909150600082015181600001556020820151816001015550508460000180549050856001016000868152602001908152602001600020819055506001915050613b34565b82856000016001830381548110613b1957fe5b90600052602060002090600202016001018190555060009150505b9392505050565b600080823b905060008111915050919050565b6060613b5d8484600085613b66565b90509392505050565b606082471015613bc1576040517f08c379a0000000000000000000000000000000000000000000000000000000008152600401808060200182810382526026815260200180613f786026913960400191505060405180910390fd5b613bca85613b3b565b613c3c576040517f08c379a000000000000000000000000000000000000000000000000000000000815260040180806020018281038252601d8152602001807f416464726573733a2063616c6c20746f206e6f6e2d636f6e747261637400000081525060200191505060405180910390fd5b600060608673ffffffffffffffffffffffffffffffffffffffff1685876040518082805190602001908083835b60208310613c8c5780518252602082019150602081019050602083039250613c69565b6001836020036101000a03801982511681845116808217855250505050505090500191505060006040518083038185875af1925050503d8060008114613cee576040519150601f19603f3d011682016040523d82523d6000602084013e613cf3565b606091505b5091509150613d03828286613d0f565b92505050949350505050565b60608315613d1f57829050613dd4565b600083511115613d325782518084602001fd5b816040517f08c379a00000000000000000000000000000000000000000000000000000000081526004018080602001828103825283818151815260200191508051906020019080838360005b83811015613d99578082015181840152602081019050613d7e565b50505050905090810190601f168015613dc65780820380516001836020036101000a031916815260200191505b509250505060405180910390fd5b9392505050565b828054600181600116156101000203166002900490600052602060002090601f016020900481019282613e115760008555613e58565b82601f10613e2a57805160ff1916838001178555613e58565b82800160010185558215613e58579182015b82811115613e57578251825591602001919060010190613e3c565b5b509050613e659190613e69565b5090565b5b80821115613e82576000816000905550600101613e6a565b509056fe456e756d657261626c655365743a20696e646578206f7574206f6620626f756e6473416363657373436f6e74726f6c3a2073656e646572206d75737420626520616e2061646d696e20746f206772616e744552433732313a207472616e7366657220746f206e6f6e20455243373231526563656976657220696d706c656d656e746572416c676f5061696e746572477765694974656d3a20496e76616c6964206d73672e73656e646572416c676f5061696e746572477765694974656d3a20496e76616c696420416d6f756e744552433732313a207472616e7366657220746f20746865207a65726f2061646472657373416464726573733a20696e73756666696369656e742062616c616e636520666f722063616c6c4552433732313a206f70657261746f7220717565727920666f72206e6f6e6578697374656e7420746f6b656e416363657373436f6e74726f6c3a2073656e646572206d75737420626520616e2061646d696e20746f207265766f6b654552433732313a20617070726f76652063616c6c6572206973206e6f74206f776e6572206e6f7220617070726f76656420666f7220616c6c4552433732313a2062616c616e636520717565727920666f7220746865207a65726f20616464726573734552433732313a206f776e657220717565727920666f72206e6f6e6578697374656e7420746f6b656e456e756d657261626c654d61703a20696e646578206f7574206f6620626f756e6473416c676f5061696e746572477765694974656d3a494e56414c49445f5349474e41545552454552433732313a20617070726f76656420717565727920666f72206e6f6e6578697374656e7420746f6b656e4552433732314d657461646174613a2055524920736574206f66206e6f6e6578697374656e7420746f6b656e4552433732313a207472616e73666572206f6620746f6b656e2074686174206973206e6f74206f776e4552433732314d657461646174613a2055524920717565727920666f72206e6f6e6578697374656e7420746f6b656e416c676f5061696e746572477765694974656d3a20477765692069732072657469726564214552433732313a20617070726f76616c20746f2063757272656e74206f776e65724552433732313a207472616e736665722063616c6c6572206973206e6f74206f776e6572206e6f7220617070726f766564416c676f5061696e746572477765694974656d3a494e56414c49445f56414c494441544f52416363657373436f6e74726f6c3a2063616e206f6e6c792072656e6f756e636520726f6c657320666f722073656c66a2646970667358221220e32b91ab45484e93c983b623ee496fdb6ede5e9e25be0488105dcabb568a0b1f64736f6c63430007040033",
  "immutableReferences": {},
  "source": "// SPDX-License-Identifier: GPL-v3\npragma solidity >=0.6.0;\n\nimport \"@openzeppelin/contracts/token/ERC721/ERC721.sol\";\nimport \"@openzeppelin/contracts/utils/Counters.sol\";\n\nimport \"./AlgoPainterAccessControl.sol\";\n\ncontract AlgoPainterGweiItem is AlgoPainterAccessControl, ERC721 {\n    using Counters for Counters.Counter;\n    Counters.Counter private _tokenIds;\n\n    mapping(bytes32 => bool) hahses;\n\n    address payable owner;\n    uint256 paitings;\n\n    event NewPaint(\n        uint256 indexed tokenId,\n        address indexed owner,\n        bytes32 indexed hash\n    );\n\n    constructor() ERC721(\"Algo Painter Gwei Item\", \"APGI\") {\n        owner = msg.sender;\n    }\n\n    function hashData(uint256 tokenId, string memory tokenURI)\n        public\n        pure\n        returns (bytes32)\n    {\n        return keccak256(abi.encodePacked(tokenId, tokenURI));\n    }\n\n    function hashMint(bytes32 hash, string memory tokenURI)\n        public\n        pure\n        returns (bytes32)\n    {\n        return keccak256(abi.encodePacked(hash, tokenURI));\n    }\n\n    /**\n     * @notice Recover signer address from a message by using his signature\n     * @param hash bytes32 message, the hash is the signed message. What is recovered is the signer address.\n     * @param sig bytes signature, the signature is generated using web3.eth.sign()\n     */\n    function recover(bytes32 hash, bytes memory sig)\n        public\n        pure\n        returns (address)\n    {\n        bytes32 r;\n        bytes32 s;\n        uint8 v;\n\n        //Check the signature length\n        if (sig.length != 65) {\n            return (address(0));\n        }\n\n        // Divide the signature in r, s and v variables\n        assembly {\n            r := mload(add(sig, 32))\n            s := mload(add(sig, 64))\n            v := byte(0, mload(add(sig, 96)))\n        }\n\n        // Version of signature should be 27 or 28, but 0 and 1 are also possible versions\n        if (v < 27) {\n            v += 27;\n        }\n\n        // If the version is correct return the signer address\n        if (v != 27 && v != 28) {\n            return (address(0));\n        } else {\n            bytes memory prefix = \"\\x19Ethereum Signed Message:\\n32\";\n            bytes32 prefixedHash = keccak256(abi.encodePacked(prefix, hash));\n            return ecrecover(prefixedHash, v, r, s);\n        }\n    }\n\n    function getMinimumAmount(uint256 paitingsCount)\n        public\n        pure\n        returns (uint256)\n    {\n        uint256 minimumAmount = 0;\n\n        if (paitingsCount <= 1000) {\n            minimumAmount = 0.01 ether;\n        } else if (paitingsCount <= 3000) {\n            minimumAmount = 0.03 ether;\n        } else if (paitingsCount <= 6000) {\n            minimumAmount = 0.04 ether;\n        } else if (paitingsCount <= 10000) {\n            minimumAmount = 0.05 ether;\n        } else if (paitingsCount <= 14000) {\n            minimumAmount = 0.07 ether;\n        } else if (paitingsCount <= 14300) {\n            minimumAmount = 0.1 ether;\n        } else if (paitingsCount <= 14500) {\n            minimumAmount = 0.16 ether;\n        } else if (paitingsCount <= 14550) {\n            minimumAmount = 0.27 ether;\n        } else if (paitingsCount <= 14576) {\n            minimumAmount = 0.49 ether;\n        } else if (paitingsCount <= 14590) {\n            minimumAmount = 0.92 ether;\n        } else {\n            minimumAmount = 1.85 ether;\n        }\n\n        return minimumAmount;\n    }\n\n    function mint(\n        bytes32 hash,\n        string memory tokenURI,\n        bytes calldata signature\n    ) public payable returns (uint256) {\n        require(paitings < 14599, \"AlgoPainterGweiItem: Gwei is retired!\");\n\n        /*bytes32 hashedMint = hashMint(hash, tokenURI);\n        address validator = recover(hashedMint, signature);\n\n        require(\n            validator != address(0),\n            \"AlgoPainterGweiItem:INVALID_SIGNATURE\"\n        );\n        require(\n            hasRole(VALIDATOR_ROLE, validator),\n            \"AlgoPainterGweiItem:INVALID_VALIDATOR\"\n        );*/\n\n        uint256 minimumAmount = getMinimumAmount(paitings);\n        require(\n            msg.value >= minimumAmount,\n            \"AlgoPainterGweiItem: Invalid Amount\"\n        );\n\n        _tokenIds.increment();\n\n        uint256 newItemId = _tokenIds.current();\n        _mint(msg.sender, newItemId);\n        _setTokenURI(newItemId, tokenURI);\n\n        hahses[hash] = true;\n\n        paitings++;\n\n        emit NewPaint(newItemId, msg.sender, hash);\n\n        return newItemId;\n    }\n\n    function withdraw() public {\n        require(msg.sender == owner, \"AlgoPainterGweiItem: Invalid msg.sender\");\n        owner.transfer(address(this).balance);\n    }\n\n    function updateTokenURI(\n        uint256 tokenId,\n        string calldata tokenURI,\n        bytes calldata signature\n    ) public {\n        bytes32 hash = hashData(tokenId, tokenURI);\n        address validator = recover(hash, signature);\n\n        require(\n            validator != address(0),\n            \"AlgoPainterGweiItem:INVALID_SIGNATURE\"\n        );\n        require(\n            hasRole(VALIDATOR_ROLE, validator),\n            \"AlgoPainterGweiItem:INVALID_VALIDATOR\"\n        );\n\n        _setTokenURI(tokenId, tokenURI);\n    }\n}\n",
  "sourcePath": "/Users/gleisson/Documents/algopainter/algopainter-smartcontracts/contracts/AlgoPainterGweiItem.sol",
  "compiler": {
    "name": "solc",
    "version": "0.7.4+commit.3f05b770.Emscripten.clang"
  },
  "schemaVersion": "3.3.3",
  "updatedAt": "2021-03-19T17:09:49.209Z",
  "devdoc": {
    "kind": "dev",
    "methods": {
      "approve(address,uint256)": {
        "details": "See {IERC721-approve}."
      },
      "balanceOf(address)": {
        "details": "See {IERC721-balanceOf}."
      },
      "baseURI()": {
        "details": "Returns the base URI set via {_setBaseURI}. This will be automatically added as a prefix in {tokenURI} to each token's URI, or to the token ID if no specific URI is set for that token ID."
      },
      "getApproved(uint256)": {
        "details": "See {IERC721-getApproved}."
      },
      "getRoleAdmin(bytes32)": {
        "details": "Returns the admin role that controls `role`. See {grantRole} and {revokeRole}. To change a role's admin, use {_setRoleAdmin}."
      },
      "getRoleMember(bytes32,uint256)": {
        "details": "Returns one of the accounts that have `role`. `index` must be a value between 0 and {getRoleMemberCount}, non-inclusive. Role bearers are not sorted in any particular way, and their ordering may change at any point. WARNING: When using {getRoleMember} and {getRoleMemberCount}, make sure you perform all queries on the same block. See the following https://forum.openzeppelin.com/t/iterating-over-elements-on-enumerableset-in-openzeppelin-contracts/2296[forum post] for more information."
      },
      "getRoleMemberCount(bytes32)": {
        "details": "Returns the number of accounts that have `role`. Can be used together with {getRoleMember} to enumerate all bearers of a role."
      },
      "grantRole(bytes32,address)": {
        "details": "Grants `role` to `account`. If `account` had not been already granted `role`, emits a {RoleGranted} event. Requirements: - the caller must have ``role``'s admin role."
      },
      "hasRole(bytes32,address)": {
        "details": "Returns `true` if `account` has been granted `role`."
      },
      "isApprovedForAll(address,address)": {
        "details": "See {IERC721-isApprovedForAll}."
      },
      "name()": {
        "details": "See {IERC721Metadata-name}."
      },
      "ownerOf(uint256)": {
        "details": "See {IERC721-ownerOf}."
      },
      "recover(bytes32,bytes)": {
        "params": {
          "hash": "bytes32 message, the hash is the signed message. What is recovered is the signer address.",
          "sig": "bytes signature, the signature is generated using web3.eth.sign()"
        }
      },
      "renounceRole(bytes32,address)": {
        "details": "Revokes `role` from the calling account. Roles are often managed via {grantRole} and {revokeRole}: this function's purpose is to provide a mechanism for accounts to lose their privileges if they are compromised (such as when a trusted device is misplaced). If the calling account had been granted `role`, emits a {RoleRevoked} event. Requirements: - the caller must be `account`."
      },
      "revokeRole(bytes32,address)": {
        "details": "Revokes `role` from `account`. If `account` had been granted `role`, emits a {RoleRevoked} event. Requirements: - the caller must have ``role``'s admin role."
      },
      "safeTransferFrom(address,address,uint256)": {
        "details": "See {IERC721-safeTransferFrom}."
      },
      "safeTransferFrom(address,address,uint256,bytes)": {
        "details": "See {IERC721-safeTransferFrom}."
      },
      "setApprovalForAll(address,bool)": {
        "details": "See {IERC721-setApprovalForAll}."
      },
      "supportsInterface(bytes4)": {
        "details": "See {IERC165-supportsInterface}. Time complexity O(1), guaranteed to always use less than 30 000 gas."
      },
      "symbol()": {
        "details": "See {IERC721Metadata-symbol}."
      },
      "tokenByIndex(uint256)": {
        "details": "See {IERC721Enumerable-tokenByIndex}."
      },
      "tokenOfOwnerByIndex(address,uint256)": {
        "details": "See {IERC721Enumerable-tokenOfOwnerByIndex}."
      },
      "tokenURI(uint256)": {
        "details": "See {IERC721Metadata-tokenURI}."
      },
      "totalSupply()": {
        "details": "See {IERC721Enumerable-totalSupply}."
      },
      "transferFrom(address,address,uint256)": {
        "details": "See {IERC721-transferFrom}."
      }
    },
    "version": 1
  },
  "userdoc": {
    "kind": "user",
    "methods": {
      "recover(bytes32,bytes)": {
        "notice": "Recover signer address from a message by using his signature"
      }
    },
    "version": 1
  }
}