{
  "contractName": "AlgoPainterGweiItem",
  "abi": [
    {
      "inputs": [],
      "stateMutability": "nonpayable",
      "type": "constructor"
    },
    {
      "anonymous": false,
      "inputs": [
        {
          "indexed": true,
          "internalType": "address",
          "name": "owner",
          "type": "address"
        },
        {
          "indexed": true,
          "internalType": "address",
          "name": "approved",
          "type": "address"
        },
        {
          "indexed": true,
          "internalType": "uint256",
          "name": "tokenId",
          "type": "uint256"
        }
      ],
      "name": "Approval",
      "type": "event"
    },
    {
      "anonymous": false,
      "inputs": [
        {
          "indexed": true,
          "internalType": "address",
          "name": "owner",
          "type": "address"
        },
        {
          "indexed": true,
          "internalType": "address",
          "name": "operator",
          "type": "address"
        },
        {
          "indexed": false,
          "internalType": "bool",
          "name": "approved",
          "type": "bool"
        }
      ],
      "name": "ApprovalForAll",
      "type": "event"
    },
    {
      "anonymous": false,
      "inputs": [
        {
          "indexed": true,
          "internalType": "uint256",
          "name": "tokenId",
          "type": "uint256"
        },
        {
          "indexed": true,
          "internalType": "address",
          "name": "owner",
          "type": "address"
        },
        {
          "indexed": true,
          "internalType": "bytes32",
          "name": "hash",
          "type": "bytes32"
        }
      ],
      "name": "NewPaint",
      "type": "event"
    },
    {
      "anonymous": false,
      "inputs": [
        {
          "indexed": true,
          "internalType": "bytes32",
          "name": "role",
          "type": "bytes32"
        },
        {
          "indexed": true,
          "internalType": "bytes32",
          "name": "previousAdminRole",
          "type": "bytes32"
        },
        {
          "indexed": true,
          "internalType": "bytes32",
          "name": "newAdminRole",
          "type": "bytes32"
        }
      ],
      "name": "RoleAdminChanged",
      "type": "event"
    },
    {
      "anonymous": false,
      "inputs": [
        {
          "indexed": true,
          "internalType": "bytes32",
          "name": "role",
          "type": "bytes32"
        },
        {
          "indexed": true,
          "internalType": "address",
          "name": "account",
          "type": "address"
        },
        {
          "indexed": true,
          "internalType": "address",
          "name": "sender",
          "type": "address"
        }
      ],
      "name": "RoleGranted",
      "type": "event"
    },
    {
      "anonymous": false,
      "inputs": [
        {
          "indexed": true,
          "internalType": "bytes32",
          "name": "role",
          "type": "bytes32"
        },
        {
          "indexed": true,
          "internalType": "address",
          "name": "account",
          "type": "address"
        },
        {
          "indexed": true,
          "internalType": "address",
          "name": "sender",
          "type": "address"
        }
      ],
      "name": "RoleRevoked",
      "type": "event"
    },
    {
      "anonymous": false,
      "inputs": [
        {
          "indexed": true,
          "internalType": "address",
          "name": "from",
          "type": "address"
        },
        {
          "indexed": true,
          "internalType": "address",
          "name": "to",
          "type": "address"
        },
        {
          "indexed": true,
          "internalType": "uint256",
          "name": "tokenId",
          "type": "uint256"
        }
      ],
      "name": "Transfer",
      "type": "event"
    },
    {
      "inputs": [],
      "name": "DEFAULT_ADMIN_ROLE",
      "outputs": [
        {
          "internalType": "bytes32",
          "name": "",
          "type": "bytes32"
        }
      ],
      "stateMutability": "view",
      "type": "function",
      "constant": true
    },
    {
      "inputs": [],
      "name": "VALIDATOR_ROLE",
      "outputs": [
        {
          "internalType": "bytes32",
          "name": "",
          "type": "bytes32"
        }
      ],
      "stateMutability": "view",
      "type": "function",
      "constant": true
    },
    {
      "inputs": [
        {
          "internalType": "address",
          "name": "to",
          "type": "address"
        },
        {
          "internalType": "uint256",
          "name": "tokenId",
          "type": "uint256"
        }
      ],
      "name": "approve",
      "outputs": [],
      "stateMutability": "nonpayable",
      "type": "function"
    },
    {
      "inputs": [
        {
          "internalType": "address",
          "name": "owner",
          "type": "address"
        }
      ],
      "name": "balanceOf",
      "outputs": [
        {
          "internalType": "uint256",
          "name": "",
          "type": "uint256"
        }
      ],
      "stateMutability": "view",
      "type": "function",
      "constant": true
    },
    {
      "inputs": [],
      "name": "baseURI",
      "outputs": [
        {
          "internalType": "string",
          "name": "",
          "type": "string"
        }
      ],
      "stateMutability": "view",
      "type": "function",
      "constant": true
    },
    {
      "inputs": [
        {
          "internalType": "uint256",
          "name": "tokenId",
          "type": "uint256"
        }
      ],
      "name": "getApproved",
      "outputs": [
        {
          "internalType": "address",
          "name": "",
          "type": "address"
        }
      ],
      "stateMutability": "view",
      "type": "function",
      "constant": true
    },
    {
      "inputs": [
        {
          "internalType": "bytes32",
          "name": "role",
          "type": "bytes32"
        }
      ],
      "name": "getRoleAdmin",
      "outputs": [
        {
          "internalType": "bytes32",
          "name": "",
          "type": "bytes32"
        }
      ],
      "stateMutability": "view",
      "type": "function",
      "constant": true
    },
    {
      "inputs": [
        {
          "internalType": "bytes32",
          "name": "role",
          "type": "bytes32"
        },
        {
          "internalType": "uint256",
          "name": "index",
          "type": "uint256"
        }
      ],
      "name": "getRoleMember",
      "outputs": [
        {
          "internalType": "address",
          "name": "",
          "type": "address"
        }
      ],
      "stateMutability": "view",
      "type": "function",
      "constant": true
    },
    {
      "inputs": [
        {
          "internalType": "bytes32",
          "name": "role",
          "type": "bytes32"
        }
      ],
      "name": "getRoleMemberCount",
      "outputs": [
        {
          "internalType": "uint256",
          "name": "",
          "type": "uint256"
        }
      ],
      "stateMutability": "view",
      "type": "function",
      "constant": true
    },
    {
      "inputs": [
        {
          "internalType": "bytes32",
          "name": "role",
          "type": "bytes32"
        },
        {
          "internalType": "address",
          "name": "account",
          "type": "address"
        }
      ],
      "name": "grantRole",
      "outputs": [],
      "stateMutability": "nonpayable",
      "type": "function"
    },
    {
      "inputs": [
        {
          "internalType": "bytes32",
          "name": "role",
          "type": "bytes32"
        },
        {
          "internalType": "address",
          "name": "account",
          "type": "address"
        }
      ],
      "name": "hasRole",
      "outputs": [
        {
          "internalType": "bool",
          "name": "",
          "type": "bool"
        }
      ],
      "stateMutability": "view",
      "type": "function",
      "constant": true
    },
    {
      "inputs": [
        {
          "internalType": "address",
          "name": "owner",
          "type": "address"
        },
        {
          "internalType": "address",
          "name": "operator",
          "type": "address"
        }
      ],
      "name": "isApprovedForAll",
      "outputs": [
        {
          "internalType": "bool",
          "name": "",
          "type": "bool"
        }
      ],
      "stateMutability": "view",
      "type": "function",
      "constant": true
    },
    {
      "inputs": [],
      "name": "name",
      "outputs": [
        {
          "internalType": "string",
          "name": "",
          "type": "string"
        }
      ],
      "stateMutability": "view",
      "type": "function",
      "constant": true
    },
    {
      "inputs": [
        {
          "internalType": "uint256",
          "name": "tokenId",
          "type": "uint256"
        }
      ],
      "name": "ownerOf",
      "outputs": [
        {
          "internalType": "address",
          "name": "",
          "type": "address"
        }
      ],
      "stateMutability": "view",
      "type": "function",
      "constant": true
    },
    {
      "inputs": [
        {
          "internalType": "bytes32",
          "name": "role",
          "type": "bytes32"
        },
        {
          "internalType": "address",
          "name": "account",
          "type": "address"
        }
      ],
      "name": "renounceRole",
      "outputs": [],
      "stateMutability": "nonpayable",
      "type": "function"
    },
    {
      "inputs": [
        {
          "internalType": "bytes32",
          "name": "role",
          "type": "bytes32"
        },
        {
          "internalType": "address",
          "name": "account",
          "type": "address"
        }
      ],
      "name": "revokeRole",
      "outputs": [],
      "stateMutability": "nonpayable",
      "type": "function"
    },
    {
      "inputs": [
        {
          "internalType": "address",
          "name": "from",
          "type": "address"
        },
        {
          "internalType": "address",
          "name": "to",
          "type": "address"
        },
        {
          "internalType": "uint256",
          "name": "tokenId",
          "type": "uint256"
        }
      ],
      "name": "safeTransferFrom",
      "outputs": [],
      "stateMutability": "nonpayable",
      "type": "function"
    },
    {
      "inputs": [
        {
          "internalType": "address",
          "name": "from",
          "type": "address"
        },
        {
          "internalType": "address",
          "name": "to",
          "type": "address"
        },
        {
          "internalType": "uint256",
          "name": "tokenId",
          "type": "uint256"
        },
        {
          "internalType": "bytes",
          "name": "_data",
          "type": "bytes"
        }
      ],
      "name": "safeTransferFrom",
      "outputs": [],
      "stateMutability": "nonpayable",
      "type": "function"
    },
    {
      "inputs": [
        {
          "internalType": "address",
          "name": "operator",
          "type": "address"
        },
        {
          "internalType": "bool",
          "name": "approved",
          "type": "bool"
        }
      ],
      "name": "setApprovalForAll",
      "outputs": [],
      "stateMutability": "nonpayable",
      "type": "function"
    },
    {
      "inputs": [
        {
          "internalType": "bytes4",
          "name": "interfaceId",
          "type": "bytes4"
        }
      ],
      "name": "supportsInterface",
      "outputs": [
        {
          "internalType": "bool",
          "name": "",
          "type": "bool"
        }
      ],
      "stateMutability": "view",
      "type": "function",
      "constant": true
    },
    {
      "inputs": [],
      "name": "symbol",
      "outputs": [
        {
          "internalType": "string",
          "name": "",
          "type": "string"
        }
      ],
      "stateMutability": "view",
      "type": "function",
      "constant": true
    },
    {
      "inputs": [
        {
          "internalType": "uint256",
          "name": "index",
          "type": "uint256"
        }
      ],
      "name": "tokenByIndex",
      "outputs": [
        {
          "internalType": "uint256",
          "name": "",
          "type": "uint256"
        }
      ],
      "stateMutability": "view",
      "type": "function",
      "constant": true
    },
    {
      "inputs": [
        {
          "internalType": "address",
          "name": "owner",
          "type": "address"
        },
        {
          "internalType": "uint256",
          "name": "index",
          "type": "uint256"
        }
      ],
      "name": "tokenOfOwnerByIndex",
      "outputs": [
        {
          "internalType": "uint256",
          "name": "",
          "type": "uint256"
        }
      ],
      "stateMutability": "view",
      "type": "function",
      "constant": true
    },
    {
      "inputs": [
        {
          "internalType": "uint256",
          "name": "tokenId",
          "type": "uint256"
        }
      ],
      "name": "tokenURI",
      "outputs": [
        {
          "internalType": "string",
          "name": "",
          "type": "string"
        }
      ],
      "stateMutability": "view",
      "type": "function",
      "constant": true
    },
    {
      "inputs": [],
      "name": "totalSupply",
      "outputs": [
        {
          "internalType": "uint256",
          "name": "",
          "type": "uint256"
        }
      ],
      "stateMutability": "view",
      "type": "function",
      "constant": true
    },
    {
      "inputs": [
        {
          "internalType": "address",
          "name": "from",
          "type": "address"
        },
        {
          "internalType": "address",
          "name": "to",
          "type": "address"
        },
        {
          "internalType": "uint256",
          "name": "tokenId",
          "type": "uint256"
        }
      ],
      "name": "transferFrom",
      "outputs": [],
      "stateMutability": "nonpayable",
      "type": "function"
    },
    {
      "inputs": [
        {
          "internalType": "uint256",
          "name": "tokenId",
          "type": "uint256"
        },
        {
          "internalType": "string",
          "name": "tokenURI",
          "type": "string"
        }
      ],
      "name": "hashData",
      "outputs": [
        {
          "internalType": "bytes32",
          "name": "",
          "type": "bytes32"
        }
      ],
      "stateMutability": "pure",
      "type": "function",
      "constant": true
    },
    {
      "inputs": [
        {
          "internalType": "bytes32",
          "name": "hash",
          "type": "bytes32"
        },
        {
          "internalType": "string",
          "name": "tokenURI",
          "type": "string"
        }
      ],
      "name": "hashMint",
      "outputs": [
        {
          "internalType": "bytes32",
          "name": "",
          "type": "bytes32"
        }
      ],
      "stateMutability": "pure",
      "type": "function",
      "constant": true
    },
    {
      "inputs": [
        {
          "internalType": "bytes32",
          "name": "hash",
          "type": "bytes32"
        },
        {
          "internalType": "bytes",
          "name": "sig",
          "type": "bytes"
        }
      ],
      "name": "recover",
      "outputs": [
        {
          "internalType": "address",
          "name": "",
          "type": "address"
        }
      ],
      "stateMutability": "pure",
      "type": "function",
      "constant": true
    },
    {
      "inputs": [
        {
          "internalType": "uint256",
          "name": "paintingsCount",
          "type": "uint256"
        }
      ],
      "name": "getMinimumAmount",
      "outputs": [
        {
          "internalType": "uint256",
          "name": "",
          "type": "uint256"
        }
      ],
      "stateMutability": "pure",
      "type": "function",
      "constant": true
    },
    {
      "inputs": [
        {
          "internalType": "bytes32",
          "name": "hash",
          "type": "bytes32"
        },
        {
          "internalType": "string",
          "name": "tokenURI",
          "type": "string"
        }
      ],
      "name": "mint",
      "outputs": [
        {
          "internalType": "uint256",
          "name": "",
          "type": "uint256"
        }
      ],
      "stateMutability": "payable",
      "type": "function",
      "payable": true
    },
    {
      "inputs": [],
      "name": "withdraw",
      "outputs": [],
      "stateMutability": "nonpayable",
      "type": "function"
    },
    {
      "inputs": [],
      "name": "getCurrentAmount",
      "outputs": [
        {
          "internalType": "uint256",
          "name": "",
          "type": "uint256"
        }
      ],
      "stateMutability": "view",
      "type": "function",
      "constant": true
    },
    {
      "inputs": [
        {
          "internalType": "bytes32",
          "name": "hash",
          "type": "bytes32"
        }
      ],
      "name": "getTokenByHash",
      "outputs": [
        {
          "internalType": "uint256",
          "name": "",
          "type": "uint256"
        }
      ],
      "stateMutability": "view",
      "type": "function",
      "constant": true
    },
    {
      "inputs": [
        {
          "internalType": "uint256",
          "name": "tokenId",
          "type": "uint256"
        },
        {
          "internalType": "string",
          "name": "tokenURI",
          "type": "string"
        },
        {
          "internalType": "bytes",
          "name": "signature",
          "type": "bytes"
        }
      ],
      "name": "updateTokenURI",
      "outputs": [],
      "stateMutability": "nonpayable",
      "type": "function"
    }
  ],
  "bytecode": "0x60806040523480156200001157600080fd5b506040518060400160405280601681526020017f416c676f205061696e7465722047776569204974656d000000000000000000008152506040518060400160405280600481526020017f4150474900000000000000000000000000000000000000000000000000000000815250620000a26000801b620000966200017d60201b60201c565b6200018560201b60201c565b620000ba6301ffc9a760e01b6200019b60201b60201c565b8160079080519060200190620000d29291906200041c565b508060089080519060200190620000eb9291906200041c565b50620001046380ac58cd60e01b6200019b60201b60201c565b6200011c635b5e139f60e01b6200019b60201b60201c565b6200013463780e9d6360e01b6200019b60201b60201c565b505033600d60006101000a81548173ffffffffffffffffffffffffffffffffffffffff021916908373ffffffffffffffffffffffffffffffffffffffff160217905550620004d2565b600033905090565b620001978282620002a460201b60201c565b5050565b63ffffffff60e01b817bffffffffffffffffffffffffffffffffffffffffffffffffffffffff1916141562000238576040517f08c379a000000000000000000000000000000000000000000000000000000000815260040180806020018281038252601c8152602001807f4552433136353a20696e76616c696420696e746572666163652069640000000081525060200191505060405180910390fd5b6001806000837bffffffffffffffffffffffffffffffffffffffffffffffffffffffff19167bffffffffffffffffffffffffffffffffffffffffffffffffffffffff1916815260200190815260200160002060006101000a81548160ff02191690831515021790555050565b620002d2816000808581526020019081526020016000206000016200034760201b620029ca1790919060201c565b156200034357620002e86200017d60201b60201c565b73ffffffffffffffffffffffffffffffffffffffff168173ffffffffffffffffffffffffffffffffffffffff16837f2f8788117e7eff1d82e926ec794901d17c78024a50270940304540a733656f0d60405160405180910390a45b5050565b600062000377836000018373ffffffffffffffffffffffffffffffffffffffff1660001b6200037f60201b60201c565b905092915050565b6000620003938383620003f960201b60201c565b620003ee578260000182908060018154018082558091505060019003906000526020600020016000909190919091505582600001805490508360010160008481526020019081526020016000208190555060019050620003f3565b600090505b92915050565b600080836001016000848152602001908152602001600020541415905092915050565b828054600181600116156101000203166002900490600052602060002090601f016020900481019282620004545760008555620004a0565b82601f106200046f57805160ff1916838001178555620004a0565b82800160010185558215620004a0579182015b828111156200049f57825182559160200191906001019062000482565b5b509050620004af9190620004b3565b5090565b5b80821115620004ce576000816000905550600101620004b4565b5090565b61436680620004e26000396000f3fe6080604052600436106102045760003560e01c80636c0360eb11610118578063be7f24d0116100a0578063ca15c8731161006f578063ca15c8731461102e578063d547741f1461107d578063e985e9c5146110d8578063ee7242e31461115f578063f9de53851461123857610204565b8063be7f24d014610e1b578063c37fd74914610f00578063c49baebe14610f4f578063c87b56dd14610f7a57610204565b8063929a0880116100e7578063929a088014610b0b57806395d89b4114610bf1578063a217fddf14610c81578063a22cb46514610cac578063b88d4fde14610d0957610204565b80636c0360eb1461093657806370a08231146109c65780639010d07c14610a2b57806391d1485414610a9a57610204565b8063248a9ca31161019b57806338ba3a171161016a57806338ba3a17146107c55780633ccfd60b146107f057806342842e0e146108075780634f6ccce7146108825780636352211e146108d157610204565b8063248a9ca3146106515780632f2ff15d146106a05780632f745c59146106fb57806336568abe1461076a57610204565b8063095ea7b3116101d7578063095ea7b31461045457806318160ddd146104af57806319045a25146104da57806323b872dd146105d657610204565b806301ffc9a714610209578063035e4ca01461027957806306fdde031461035f578063081812fc146103ef575b600080fd5b34801561021557600080fd5b506102616004803603602081101561022c57600080fd5b8101908080357bffffffffffffffffffffffffffffffffffffffffffffffffffffffff19169060200190929190505050611287565b60405180821515815260200191505060405180910390f35b34801561028557600080fd5b506103496004803603604081101561029c57600080fd5b8101908080359060200190929190803590602001906401000000008111156102c357600080fd5b8201836020820111156102d557600080fd5b803590602001918460018302840111640100000000831117156102f757600080fd5b91908080601f016020809104026020016040519081016040528093929190818152602001838380828437600081840152601f19601f8201169050808301925050505050505091929192905050506112ef565b6040518082815260200191505060405180910390f35b34801561036b57600080fd5b50610374611373565b6040518080602001828103825283818151815260200191508051906020019080838360005b838110156103b4578082015181840152602081019050610399565b50505050905090810190601f1680156103e15780820380516001836020036101000a031916815260200191505b509250505060405180910390f35b3480156103fb57600080fd5b506104286004803603602081101561041257600080fd5b8101908080359060200190929190505050611415565b604051808273ffffffffffffffffffffffffffffffffffffffff16815260200191505060405180910390f35b34801561046057600080fd5b506104ad6004803603604081101561047757600080fd5b81019080803573ffffffffffffffffffffffffffffffffffffffff169060200190929190803590602001909291905050506114b0565b005b3480156104bb57600080fd5b506104c46115f4565b6040518082815260200191505060405180910390f35b3480156104e657600080fd5b506105aa600480360360408110156104fd57600080fd5b81019080803590602001909291908035906020019064010000000081111561052457600080fd5b82018360208201111561053657600080fd5b8035906020019184600183028401116401000000008311171561055857600080fd5b91908080601f016020809104026020016040519081016040528093929190818152602001838380828437600081840152601f19601f820116905080830192505050505050509192919290505050611605565b604051808273ffffffffffffffffffffffffffffffffffffffff16815260200191505060405180910390f35b3480156105e257600080fd5b5061064f600480360360608110156105f957600080fd5b81019080803573ffffffffffffffffffffffffffffffffffffffff169060200190929190803573ffffffffffffffffffffffffffffffffffffffff1690602001909291908035906020019092919050505061179e565b005b34801561065d57600080fd5b5061068a6004803603602081101561067457600080fd5b8101908080359060200190929190505050611814565b6040518082815260200191505060405180910390f35b3480156106ac57600080fd5b506106f9600480360360408110156106c357600080fd5b8101908080359060200190929190803573ffffffffffffffffffffffffffffffffffffffff169060200190929190505050611833565b005b34801561070757600080fd5b506107546004803603604081101561071e57600080fd5b81019080803573ffffffffffffffffffffffffffffffffffffffff169060200190929190803590602001909291905050506118bc565b6040518082815260200191505060405180910390f35b34801561077657600080fd5b506107c36004803603604081101561078d57600080fd5b8101908080359060200190929190803573ffffffffffffffffffffffffffffffffffffffff169060200190929190505050611917565b005b3480156107d157600080fd5b506107da6119b0565b6040518082815260200191505060405180910390f35b3480156107fc57600080fd5b506108056119c5565b005b34801561081357600080fd5b506108806004803603606081101561082a57600080fd5b81019080803573ffffffffffffffffffffffffffffffffffffffff169060200190929190803573ffffffffffffffffffffffffffffffffffffffff16906020019092919080359060200190929190505050611ad6565b005b34801561088e57600080fd5b506108bb600480360360208110156108a557600080fd5b8101908080359060200190929190505050611af6565b6040518082815260200191505060405180910390f35b3480156108dd57600080fd5b5061090a600480360360208110156108f457600080fd5b8101908080359060200190929190505050611b19565b604051808273ffffffffffffffffffffffffffffffffffffffff16815260200191505060405180910390f35b34801561094257600080fd5b5061094b611b50565b6040518080602001828103825283818151815260200191508051906020019080838360005b8381101561098b578082015181840152602081019050610970565b50505050905090810190601f1680156109b85780820380516001836020036101000a031916815260200191505b509250505060405180910390f35b3480156109d257600080fd5b50610a15600480360360208110156109e957600080fd5b81019080803573ffffffffffffffffffffffffffffffffffffffff169060200190929190505050611bf2565b6040518082815260200191505060405180910390f35b348015610a3757600080fd5b50610a6e60048036036040811015610a4e57600080fd5b810190808035906020019092919080359060200190929190505050611cc7565b604051808273ffffffffffffffffffffffffffffffffffffffff16815260200191505060405180910390f35b348015610aa657600080fd5b50610af360048036036040811015610abd57600080fd5b8101908080359060200190929190803573ffffffffffffffffffffffffffffffffffffffff169060200190929190505050611cf8565b60405180821515815260200191505060405180910390f35b348015610b1757600080fd5b50610bdb60048036036040811015610b2e57600080fd5b810190808035906020019092919080359060200190640100000000811115610b5557600080fd5b820183602082011115610b6757600080fd5b80359060200191846001830284011164010000000083111715610b8957600080fd5b91908080601f016020809104026020016040519081016040528093929190818152602001838380828437600081840152601f19601f820116905080830192505050505050509192919290505050611d29565b6040518082815260200191505060405180910390f35b348015610bfd57600080fd5b50610c06611dad565b6040518080602001828103825283818151815260200191508051906020019080838360005b83811015610c46578082015181840152602081019050610c2b565b50505050905090810190601f168015610c735780820380516001836020036101000a031916815260200191505b509250505060405180910390f35b348015610c8d57600080fd5b50610c96611e4f565b6040518082815260200191505060405180910390f35b348015610cb857600080fd5b50610d0760048036036040811015610ccf57600080fd5b81019080803573ffffffffffffffffffffffffffffffffffffffff169060200190929190803515159060200190929190505050611e56565b005b348015610d1557600080fd5b50610e1960048036036080811015610d2c57600080fd5b81019080803573ffffffffffffffffffffffffffffffffffffffff169060200190929190803573ffffffffffffffffffffffffffffffffffffffff1690602001909291908035906020019092919080359060200190640100000000811115610d9357600080fd5b820183602082011115610da557600080fd5b80359060200191846001830284011164010000000083111715610dc757600080fd5b91908080601f016020809104026020016040519081016040528093929190818152602001838380828437600081840152601f19601f82011690508083019250505050505050919291929050505061200c565b005b348015610e2757600080fd5b50610efe60048036036060811015610e3e57600080fd5b810190808035906020019092919080359060200190640100000000811115610e6557600080fd5b820183602082011115610e7757600080fd5b80359060200191846001830284011164010000000083111715610e9957600080fd5b909192939192939080359060200190640100000000811115610eba57600080fd5b820183602082011115610ecc57600080fd5b80359060200191846001830284011164010000000083111715610eee57600080fd5b9091929391929390505050612084565b005b348015610f0c57600080fd5b50610f3960048036036020811015610f2357600080fd5b8101908080359060200190929190505050612284565b6040518082815260200191505060405180910390f35b348015610f5b57600080fd5b50610f6461239e565b6040518082815260200191505060405180910390f35b348015610f8657600080fd5b50610fb360048036036020811015610f9d57600080fd5b81019080803590602001909291905050506123c2565b6040518080602001828103825283818151815260200191508051906020019080838360005b83811015610ff3578082015181840152602081019050610fd8565b50505050905090810190601f1680156110205780820380516001836020036101000a031916815260200191505b509250505060405180910390f35b34801561103a57600080fd5b506110676004803603602081101561105157600080fd5b8101908080359060200190929190505050612693565b6040518082815260200191505060405180910390f35b34801561108957600080fd5b506110d6600480360360408110156110a057600080fd5b8101908080359060200190929190803573ffffffffffffffffffffffffffffffffffffffff1690602001909291905050506126b9565b005b3480156110e457600080fd5b50611147600480360360408110156110fb57600080fd5b81019080803573ffffffffffffffffffffffffffffffffffffffff169060200190929190803573ffffffffffffffffffffffffffffffffffffffff169060200190929190505050612742565b60405180821515815260200191505060405180910390f35b6112226004803603604081101561117557600080fd5b81019080803590602001909291908035906020019064010000000081111561119c57600080fd5b8201836020820111156111ae57600080fd5b803590602001918460018302840111640100000000831117156111d057600080fd5b91908080601f016020809104026020016040519081016040528093929190818152602001838380828437600081840152601f19601f8201169050808301925050505050505091929192905050506127d6565b6040518082815260200191505060405180910390f35b34801561124457600080fd5b506112716004803603602081101561125b57600080fd5b81019080803590602001909291905050506129ad565b6040518082815260200191505060405180910390f35b600060016000837bffffffffffffffffffffffffffffffffffffffffffffffffffffffff19167bffffffffffffffffffffffffffffffffffffffffffffffffffffffff1916815260200190815260200160002060009054906101000a900460ff169050919050565b600082826040516020018083815260200182805190602001908083835b6020831061132f578051825260208201915060208101905060208303925061130c565b6001836020036101000a0380198251168184511680821785525050505050509050019250505060405160208183030381529060405280519060200120905092915050565b606060078054600181600116156101000203166002900480601f01602080910402602001604051908101604052809291908181526020018280546001816001161561010002031660029004801561140b5780601f106113e05761010080835404028352916020019161140b565b820191906000526020600020905b8154815290600101906020018083116113ee57829003601f168201915b5050505050905090565b6000611420826129fa565b611475576040517f08c379a000000000000000000000000000000000000000000000000000000000815260040180806020018281038252602c81526020018061418e602c913960400191505060405180910390fd5b6005600083815260200190815260200160002060009054906101000a900473ffffffffffffffffffffffffffffffffffffffff169050919050565b60006114bb82611b19565b90508073ffffffffffffffffffffffffffffffffffffffff168373ffffffffffffffffffffffffffffffffffffffff161415611542576040517f08c379a000000000000000000000000000000000000000000000000000000000815260040180806020018281038252602181526020018061428b6021913960400191505060405180910390fd5b8073ffffffffffffffffffffffffffffffffffffffff16611561612a17565b73ffffffffffffffffffffffffffffffffffffffff161480611590575061158f8161158a612a17565b612742565b5b6115e5576040517f08c379a00000000000000000000000000000000000000000000000000000000081526004018080602001828103825260388152602001806140bc6038913960400191505060405180910390fd5b6115ef8383612a1f565b505050565b60006116006003612ad8565b905090565b60008060008060418551146116205760009350505050611798565b6020850151925060408501519150606085015160001a9050601b8160ff16101561164b57601b810190505b601b8160ff16141580156116635750601c8160ff1614155b156116745760009350505050611798565b60606040518060400160405280601c81526020017f19457468657265756d205369676e6564204d6573736167653a0a3332000000008152509050600081886040516020018083805190602001908083835b602083106116e857805182526020820191506020810190506020830392506116c5565b6001836020036101000a0380198251168184511680821785525050505050509050018281526020019250505060405160208183030381529060405280519060200120905060018184878760405160008152602001604052604051808581526020018460ff1681526020018381526020018281526020019450505050506020604051602081039080840390855afa158015611786573d6000803e3d6000fd5b50505060206040510351955050505050505b92915050565b6117af6117a9612a17565b82612aed565b611804576040517f08c379a00000000000000000000000000000000000000000000000000000000081526004018080602001828103825260318152602001806142ac6031913960400191505060405180910390fd5b61180f838383612be1565b505050565b6000806000838152602001908152602001600020600201549050919050565b61185960008084815260200190815260200160002060020154611854612a17565b611cf8565b6118ae576040517f08c379a000000000000000000000000000000000000000000000000000000000815260040180806020018281038252602f815260200180613f6b602f913960400191505060405180910390fd5b6118b88282612e24565b5050565b600061190f82600260008673ffffffffffffffffffffffffffffffffffffffff1673ffffffffffffffffffffffffffffffffffffffff168152602001908152602001600020612eb790919063ffffffff16565b905092915050565b61191f612a17565b73ffffffffffffffffffffffffffffffffffffffff168173ffffffffffffffffffffffffffffffffffffffff16146119a2576040517f08c379a000000000000000000000000000000000000000000000000000000000815260040180806020018281038252602f815260200180614302602f913960400191505060405180910390fd5b6119ac8282612ed1565b5050565b60006119c06001600e5401612284565b905090565b600d60009054906101000a900473ffffffffffffffffffffffffffffffffffffffff1673ffffffffffffffffffffffffffffffffffffffff163373ffffffffffffffffffffffffffffffffffffffff1614611a6b576040517f08c379a0000000000000000000000000000000000000000000000000000000008152600401808060200182810382526027815260200180613fcc6027913960400191505060405180910390fd5b600d60009054906101000a900473ffffffffffffffffffffffffffffffffffffffff1673ffffffffffffffffffffffffffffffffffffffff166108fc479081150290604051600060405180830381858888f19350505050158015611ad3573d6000803e3d6000fd5b50565b611af18383836040518060200160405280600081525061200c565b505050565b600080611b0d836003612f6490919063ffffffff16565b50905080915050919050565b6000611b498260405180606001604052806029815260200161411e602991396003612f909092919063ffffffff16565b9050919050565b6060600a8054600181600116156101000203166002900480601f016020809104026020016040519081016040528092919081815260200182805460018160011615610100020316600290048015611be85780601f10611bbd57610100808354040283529160200191611be8565b820191906000526020600020905b815481529060010190602001808311611bcb57829003601f168201915b5050505050905090565b60008073ffffffffffffffffffffffffffffffffffffffff168273ffffffffffffffffffffffffffffffffffffffff161415611c79576040517f08c379a000000000000000000000000000000000000000000000000000000000815260040180806020018281038252602a8152602001806140f4602a913960400191505060405180910390fd5b611cc0600260008473ffffffffffffffffffffffffffffffffffffffff1673ffffffffffffffffffffffffffffffffffffffff168152602001908152602001600020612faf565b9050919050565b6000611cf082600080868152602001908152602001600020600001612fc490919063ffffffff16565b905092915050565b6000611d2182600080868152602001908152602001600020600001612fde90919063ffffffff16565b905092915050565b600082826040516020018083815260200182805190602001908083835b60208310611d695780518252602082019150602081019050602083039250611d46565b6001836020036101000a0380198251168184511680821785525050505050509050019250505060405160208183030381529060405280519060200120905092915050565b606060088054600181600116156101000203166002900480601f016020809104026020016040519081016040528092919081815260200182805460018160011615610100020316600290048015611e455780601f10611e1a57610100808354040283529160200191611e45565b820191906000526020600020905b815481529060010190602001808311611e2857829003601f168201915b5050505050905090565b6000801b81565b611e5e612a17565b73ffffffffffffffffffffffffffffffffffffffff168273ffffffffffffffffffffffffffffffffffffffff161415611eff576040517f08c379a00000000000000000000000000000000000000000000000000000000081526004018080602001828103825260198152602001807f4552433732313a20617070726f766520746f2063616c6c65720000000000000081525060200191505060405180910390fd5b8060066000611f0c612a17565b73ffffffffffffffffffffffffffffffffffffffff1673ffffffffffffffffffffffffffffffffffffffff16815260200190815260200160002060008473ffffffffffffffffffffffffffffffffffffffff1673ffffffffffffffffffffffffffffffffffffffff16815260200190815260200160002060006101000a81548160ff0219169083151502179055508173ffffffffffffffffffffffffffffffffffffffff16611fb9612a17565b73ffffffffffffffffffffffffffffffffffffffff167f17307eab39ab6107e8899845ad3d59bd9653f200f220920489ca2b5937696c318360405180821515815260200191505060405180910390a35050565b61201d612017612a17565b83612aed565b612072576040517f08c379a00000000000000000000000000000000000000000000000000000000081526004018080602001828103825260318152602001806142ac6031913960400191505060405180910390fd5b61207e8484848461300e565b50505050565b60006120d48686868080601f016020809104026020016040519081016040528093929190818152602001838380828437600081840152601f19601f82011690508083019250505050505050611d29565b905060006121268285858080601f016020809104026020016040519081016040528093929190818152602001838380828437600081840152601f19601f82011690508083019250505050505050611605565b9050600073ffffffffffffffffffffffffffffffffffffffff168173ffffffffffffffffffffffffffffffffffffffff1614156121ae576040517f08c379a00000000000000000000000000000000000000000000000000000000081526004018080602001828103825260258152602001806141696025913960400191505060405180910390fd5b6121d87f21702c8af46127c7fa207f89d0b0a8441bb32959a0ac7df790e9ab1a25c9892682611cf8565b61222d576040517f08c379a00000000000000000000000000000000000000000000000000000000081526004018080602001828103825260258152602001806142dd6025913960400191505060405180910390fd5b61227b8787878080601f016020809104026020016040519081016040528093929190818152602001838380828437600081840152601f19601f82011690508083019250505050505050613080565b50505050505050565b600080600090506103e883116122a357662386f26fc100009050612395565b610bb883116122bb57666a94d74f4300009050612394565b61177083116122d357668e1bc9bf0400009050612393565b61271083116122eb5766b1a2bc2ec500009050612392565b6136b083116123035766f8b0a10e4700009050612391565b6137dc831161231c5767016345785d8a00009050612390565b6138a48311612335576702386f26fc100000905061238f565b6138d6831161234e576703bf3b91c95b0000905061238e565b6138f08311612367576706ccd46763f10000905061238d565b6138fe831161238057670cc47f20295c0000905061238c565b6719ac8532c279000090505b5b5b5b5b5b5b5b5b5b80915050919050565b7f21702c8af46127c7fa207f89d0b0a8441bb32959a0ac7df790e9ab1a25c9892681565b60606123cd826129fa565b612422576040517f08c379a000000000000000000000000000000000000000000000000000000000815260040180806020018281038252602f81526020018061420f602f913960400191505060405180910390fd5b6060600960008481526020019081526020016000208054600181600116156101000203166002900480601f0160208091040260200160405190810160405280929190818152602001828054600181600116156101000203166002900480156124cb5780601f106124a0576101008083540402835291602001916124cb565b820191906000526020600020905b8154815290600101906020018083116124ae57829003601f168201915b5050505050905060606124dc611b50565b90506000815114156124f257819250505061268e565b6000825111156125c35780826040516020018083805190602001908083835b602083106125345780518252602082019150602081019050602083039250612511565b6001836020036101000a03801982511681845116808217855250505050505090500182805190602001908083835b602083106125855780518252602082019150602081019050602083039250612562565b6001836020036101000a038019825116818451168082178552505050505050905001925050506040516020818303038152906040529250505061268e565b806125cd8561310a565b6040516020018083805190602001908083835b6020831061260357805182526020820191506020810190506020830392506125e0565b6001836020036101000a03801982511681845116808217855250505050505090500182805190602001908083835b602083106126545780518252602082019150602081019050602083039250612631565b6001836020036101000a03801982511681845116808217855250505050505090500192505050604051602081830303815290604052925050505b919050565b60006126b2600080848152602001908152602001600020600001613251565b9050919050565b6126df600080848152602001908152602001600020600201546126da612a17565b611cf8565b612734576040517f08c379a000000000000000000000000000000000000000000000000000000000815260040180806020018281038252603081526020018061408c6030913960400191505060405180910390fd5b61273e8282612ed1565b5050565b6000600660008473ffffffffffffffffffffffffffffffffffffffff1673ffffffffffffffffffffffffffffffffffffffff16815260200190815260200160002060008373ffffffffffffffffffffffffffffffffffffffff1673ffffffffffffffffffffffffffffffffffffffff16815260200190815260200160002060009054906101000a900460ff16905092915050565b600080600c60008581526020019081526020016000205414612843576040517f08c379a000000000000000000000000000000000000000000000000000000000815260040180806020018281038252602881526020018061423e6028913960400191505060405180910390fd5b613907600e541061289f576040517f08c379a00000000000000000000000000000000000000000000000000000000081526004018080602001828103825260258152602001806142666025913960400191505060405180910390fd5b60006128ac600e54612284565b905080341015612907576040517f08c379a0000000000000000000000000000000000000000000000000000000008152600401808060200182810382526023815260200180613ff36023913960400191505060405180910390fd5b612911600b613266565b600061291d600b61327c565b9050612929338261328a565b6129338185613080565b80600c600087815260200190815260200160002081905550600e60008154809291906001019190505550843373ffffffffffffffffffffffffffffffffffffffff16827fabaf4f76d21b13fdfdf1e3dfe2f8ecb8c3ceb66f127d31f3371d0f8acac160f660405160405180910390a4809250505092915050565b6000600c6000838152602001908152602001600020549050919050565b60006129f2836000018373ffffffffffffffffffffffffffffffffffffffff1660001b61347e565b905092915050565b6000612a108260036134ee90919063ffffffff16565b9050919050565b600033905090565b816005600083815260200190815260200160002060006101000a81548173ffffffffffffffffffffffffffffffffffffffff021916908373ffffffffffffffffffffffffffffffffffffffff160217905550808273ffffffffffffffffffffffffffffffffffffffff16612a9283611b19565b73ffffffffffffffffffffffffffffffffffffffff167f8c5be1e5ebec7d5bd14f71427d1e84f3dd0314c0f7b2291e5b200ac8c7c3b92560405160405180910390a45050565b6000612ae682600001613508565b9050919050565b6000612af8826129fa565b612b4d576040517f08c379a000000000000000000000000000000000000000000000000000000000815260040180806020018281038252602c815260200180614060602c913960400191505060405180910390fd5b6000612b5883611b19565b90508073ffffffffffffffffffffffffffffffffffffffff168473ffffffffffffffffffffffffffffffffffffffff161480612bc757508373ffffffffffffffffffffffffffffffffffffffff16612baf84611415565b73ffffffffffffffffffffffffffffffffffffffff16145b80612bd85750612bd78185612742565b5b91505092915050565b8273ffffffffffffffffffffffffffffffffffffffff16612c0182611b19565b73ffffffffffffffffffffffffffffffffffffffff1614612c6d576040517f08c379a00000000000000000000000000000000000000000000000000000000081526004018080602001828103825260298152602001806141e66029913960400191505060405180910390fd5b600073ffffffffffffffffffffffffffffffffffffffff168273ffffffffffffffffffffffffffffffffffffffff161415612cf3576040517f08c379a00000000000000000000000000000000000000000000000000000000081526004018080602001828103825260248152602001806140166024913960400191505060405180910390fd5b612cfe838383613519565b612d09600082612a1f565b612d5a81600260008673ffffffffffffffffffffffffffffffffffffffff1673ffffffffffffffffffffffffffffffffffffffff16815260200190815260200160002061351e90919063ffffffff16565b50612dac81600260008573ffffffffffffffffffffffffffffffffffffffff1673ffffffffffffffffffffffffffffffffffffffff16815260200190815260200160002061353890919063ffffffff16565b50612dc3818360036135529092919063ffffffff16565b50808273ffffffffffffffffffffffffffffffffffffffff168473ffffffffffffffffffffffffffffffffffffffff167fddf252ad1be2c89b69c2b068fc378daa952ba7f163c4a11628f55a4df523b3ef60405160405180910390a4505050565b612e4b816000808581526020019081526020016000206000016129ca90919063ffffffff16565b15612eb357612e58612a17565b73ffffffffffffffffffffffffffffffffffffffff168173ffffffffffffffffffffffffffffffffffffffff16837f2f8788117e7eff1d82e926ec794901d17c78024a50270940304540a733656f0d60405160405180910390a45b5050565b6000612ec68360000183613587565b60001c905092915050565b612ef88160008085815260200190815260200160002060000161360a90919063ffffffff16565b15612f6057612f05612a17565b73ffffffffffffffffffffffffffffffffffffffff168173ffffffffffffffffffffffffffffffffffffffff16837ff6391f5c32d9c69d2a47ea670b442974b53935d1edc7fd64eb21e047a839171b60405160405180910390a45b5050565b600080600080612f77866000018661363a565b915091508160001c8160001c9350935050509250929050565b6000612fa3846000018460001b846136d3565b60001c90509392505050565b6000612fbd826000016137c9565b9050919050565b6000612fd38360000183613587565b60001c905092915050565b6000613006836000018373ffffffffffffffffffffffffffffffffffffffff1660001b6137da565b905092915050565b613019848484612be1565b613025848484846137fd565b61307a576040517f08c379a0000000000000000000000000000000000000000000000000000000008152600401808060200182810382526032815260200180613f9a6032913960400191505060405180910390fd5b50505050565b613089826129fa565b6130de576040517f08c379a000000000000000000000000000000000000000000000000000000000815260040180806020018281038252602c8152602001806141ba602c913960400191505060405180910390fd5b80600960008481526020019081526020016000209080519060200190613105929190613e9d565b505050565b60606000821415613152576040518060400160405280600181526020017f3000000000000000000000000000000000000000000000000000000000000000815250905061324c565b600082905060005b6000821461317c578080600101915050600a828161317457fe5b04915061315a565b60608167ffffffffffffffff8111801561319557600080fd5b506040519080825280601f01601f1916602001820160405280156131c85781602001600182028036833780820191505090505b50905060006001830390508593505b6000841461324457600a84816131e957fe5b0660300160f81b8282806001900393508151811061320357fe5b60200101907effffffffffffffffffffffffffffffffffffffffffffffffffffffffffffff1916908160001a905350600a848161323c57fe5b0493506131d7565b819450505050505b919050565b600061325f826000016137c9565b9050919050565b6001816000016000828254019250508190555050565b600081600001549050919050565b600073ffffffffffffffffffffffffffffffffffffffff168273ffffffffffffffffffffffffffffffffffffffff16141561332d576040517f08c379a00000000000000000000000000000000000000000000000000000000081526004018080602001828103825260208152602001807f4552433732313a206d696e7420746f20746865207a65726f206164647265737381525060200191505060405180910390fd5b613336816129fa565b156133a9576040517f08c379a000000000000000000000000000000000000000000000000000000000815260040180806020018281038252601c8152602001807f4552433732313a20746f6b656e20616c7265616479206d696e7465640000000081525060200191505060405180910390fd5b6133b560008383613519565b61340681600260008573ffffffffffffffffffffffffffffffffffffffff1673ffffffffffffffffffffffffffffffffffffffff16815260200190815260200160002061353890919063ffffffff16565b5061341d818360036135529092919063ffffffff16565b50808273ffffffffffffffffffffffffffffffffffffffff16600073ffffffffffffffffffffffffffffffffffffffff167fddf252ad1be2c89b69c2b068fc378daa952ba7f163c4a11628f55a4df523b3ef60405160405180910390a45050565b600061348a83836137da565b6134e35782600001829080600181540180825580915050600190039060005260206000200160009091909190915055826000018054905083600101600084815260200190815260200160002081905550600190506134e8565b600090505b92915050565b6000613500836000018360001b613a16565b905092915050565b600081600001805490509050919050565b505050565b6000613530836000018360001b613a39565b905092915050565b600061354a836000018360001b61347e565b905092915050565b600061357e846000018460001b8473ffffffffffffffffffffffffffffffffffffffff1660001b613b21565b90509392505050565b6000818360000180549050116135e8576040517f08c379a0000000000000000000000000000000000000000000000000000000008152600401808060200182810382526022815260200180613f496022913960400191505060405180910390fd5b8260000182815481106135f757fe5b9060005260206000200154905092915050565b6000613632836000018373ffffffffffffffffffffffffffffffffffffffff1660001b613a39565b905092915050565b6000808284600001805490501161369c576040517f08c379a00000000000000000000000000000000000000000000000000000000081526004018080602001828103825260228152602001806141476022913960400191505060405180910390fd5b60008460000184815481106136ad57fe5b906000526020600020906002020190508060000154816001015492509250509250929050565b6000808460010160008581526020019081526020016000205490506000811415839061379a576040517f08c379a00000000000000000000000000000000000000000000000000000000081526004018080602001828103825283818151815260200191508051906020019080838360005b8381101561375f578082015181840152602081019050613744565b50505050905090810190601f16801561378c5780820380516001836020036101000a031916815260200191505b509250505060405180910390fd5b508460000160018203815481106137ad57fe5b9060005260206000209060020201600101549150509392505050565b600081600001805490509050919050565b600080836001016000848152602001908152602001600020541415905092915050565b600061381e8473ffffffffffffffffffffffffffffffffffffffff16613bfd565b61382b5760019050613a0e565b606061399563150b7a0260e01b613840612a17565b888787604051602401808573ffffffffffffffffffffffffffffffffffffffff1681526020018473ffffffffffffffffffffffffffffffffffffffff16815260200183815260200180602001828103825283818151815260200191508051906020019080838360005b838110156138c45780820151818401526020810190506138a9565b50505050905090810190601f1680156138f15780820380516001836020036101000a031916815260200191505b5095505050505050604051602081830303815290604052907bffffffffffffffffffffffffffffffffffffffffffffffffffffffff19166020820180517bffffffffffffffffffffffffffffffffffffffffffffffffffffffff8381831617835250505050604051806060016040528060328152602001613f9a603291398773ffffffffffffffffffffffffffffffffffffffff16613c109092919063ffffffff16565b905060008180602001905160208110156139ae57600080fd5b8101908080519060200190929190505050905063150b7a0260e01b7bffffffffffffffffffffffffffffffffffffffffffffffffffffffff1916817bffffffffffffffffffffffffffffffffffffffffffffffffffffffff191614925050505b949350505050565b600080836001016000848152602001908152602001600020541415905092915050565b60008083600101600084815260200190815260200160002054905060008114613b155760006001820390506000600186600001805490500390506000866000018281548110613a8457fe5b9060005260206000200154905080876000018481548110613aa157fe5b9060005260206000200181905550600183018760010160008381526020019081526020016000208190555086600001805480613ad957fe5b60019003818190600052602060002001600090559055866001016000878152602001908152602001600020600090556001945050505050613b1b565b60009150505b92915050565b6000808460010160008581526020019081526020016000205490506000811415613bc857846000016040518060400160405280868152602001858152509080600181540180825580915050600190039060005260206000209060020201600090919091909150600082015181600001556020820151816001015550508460000180549050856001016000868152602001908152602001600020819055506001915050613bf6565b82856000016001830381548110613bdb57fe5b90600052602060002090600202016001018190555060009150505b9392505050565b600080823b905060008111915050919050565b6060613c1f8484600085613c28565b90509392505050565b606082471015613c83576040517f08c379a000000000000000000000000000000000000000000000000000000000815260040180806020018281038252602681526020018061403a6026913960400191505060405180910390fd5b613c8c85613bfd565b613cfe576040517f08c379a000000000000000000000000000000000000000000000000000000000815260040180806020018281038252601d8152602001807f416464726573733a2063616c6c20746f206e6f6e2d636f6e747261637400000081525060200191505060405180910390fd5b600060608673ffffffffffffffffffffffffffffffffffffffff1685876040518082805190602001908083835b60208310613d4e5780518252602082019150602081019050602083039250613d2b565b6001836020036101000a03801982511681845116808217855250505050505090500191505060006040518083038185875af1925050503d8060008114613db0576040519150601f19603f3d011682016040523d82523d6000602084013e613db5565b606091505b5091509150613dc5828286613dd1565b92505050949350505050565b60608315613de157829050613e96565b600083511115613df45782518084602001fd5b816040517f08c379a00000000000000000000000000000000000000000000000000000000081526004018080602001828103825283818151815260200191508051906020019080838360005b83811015613e5b578082015181840152602081019050613e40565b50505050905090810190601f168015613e885780820380516001836020036101000a031916815260200191505b509250505060405180910390fd5b9392505050565b828054600181600116156101000203166002900490600052602060002090601f016020900481019282613ed35760008555613f1a565b82601f10613eec57805160ff1916838001178555613f1a565b82800160010185558215613f1a579182015b82811115613f19578251825591602001919060010190613efe565b5b509050613f279190613f2b565b5090565b5b80821115613f44576000816000905550600101613f2c565b509056fe456e756d657261626c655365743a20696e646578206f7574206f6620626f756e6473416363657373436f6e74726f6c3a2073656e646572206d75737420626520616e2061646d696e20746f206772616e744552433732313a207472616e7366657220746f206e6f6e20455243373231526563656976657220696d706c656d656e746572416c676f5061696e746572477765694974656d3a20496e76616c6964206d73672e73656e646572416c676f5061696e746572477765694974656d3a20496e76616c696420416d6f756e744552433732313a207472616e7366657220746f20746865207a65726f2061646472657373416464726573733a20696e73756666696369656e742062616c616e636520666f722063616c6c4552433732313a206f70657261746f7220717565727920666f72206e6f6e6578697374656e7420746f6b656e416363657373436f6e74726f6c3a2073656e646572206d75737420626520616e2061646d696e20746f207265766f6b654552433732313a20617070726f76652063616c6c6572206973206e6f74206f776e6572206e6f7220617070726f76656420666f7220616c6c4552433732313a2062616c616e636520717565727920666f7220746865207a65726f20616464726573734552433732313a206f776e657220717565727920666f72206e6f6e6578697374656e7420746f6b656e456e756d657261626c654d61703a20696e646578206f7574206f6620626f756e6473416c676f5061696e746572477765694974656d3a494e56414c49445f5349474e41545552454552433732313a20617070726f76656420717565727920666f72206e6f6e6578697374656e7420746f6b656e4552433732314d657461646174613a2055524920736574206f66206e6f6e6578697374656e7420746f6b656e4552433732313a207472616e73666572206f6620746f6b656e2074686174206973206e6f74206f776e4552433732314d657461646174613a2055524920717565727920666f72206e6f6e6578697374656e7420746f6b656e416c676f5061696e746572477765694974656d3a20416c7265616479207265676973746572656421416c676f5061696e746572477765694974656d3a20477765692069732072657469726564214552433732313a20617070726f76616c20746f2063757272656e74206f776e65724552433732313a207472616e736665722063616c6c6572206973206e6f74206f776e6572206e6f7220617070726f766564416c676f5061696e746572477765694974656d3a494e56414c49445f56414c494441544f52416363657373436f6e74726f6c3a2063616e206f6e6c792072656e6f756e636520726f6c657320666f722073656c66a26469706673582212207f2b7d711a25cf101859b23215587f0ddcfb584e8499765a0272eda795c65aee64736f6c63430007040033",
  "immutableReferences": {},
  "source": "// SPDX-License-Identifier: GPL-v3\npragma solidity >=0.6.0;\n\nimport \"@openzeppelin/contracts/token/ERC721/ERC721.sol\";\nimport \"@openzeppelin/contracts/utils/Counters.sol\";\n\nimport \"./AlgoPainterAccessControl.sol\";\n\ncontract AlgoPainterGweiItem is AlgoPainterAccessControl, ERC721 {\n    using Counters for Counters.Counter;\n    Counters.Counter private _tokenIds;\n\n    mapping(bytes32 => uint256) hashes;\n\n    address payable owner;\n    uint256 paintings;\n\n    event NewPaint(\n        uint256 indexed tokenId,\n        address indexed owner,\n        bytes32 indexed hash\n    );\n\n    constructor() ERC721(\"Algo Painter Gwei Item\", \"APGI\") {\n        owner = msg.sender;\n    }\n\n    function hashData(uint256 tokenId, string memory tokenURI)\n        public\n        pure\n        returns (bytes32)\n    {\n        return keccak256(abi.encodePacked(tokenId, tokenURI));\n    }\n\n    function hashMint(bytes32 hash, string memory tokenURI)\n        public\n        pure\n        returns (bytes32)\n    {\n        return keccak256(abi.encodePacked(hash, tokenURI));\n    }\n\n    /**\n     * @notice Recover signer address from a message by using his signature\n     * @param hash bytes32 message, the hash is the signed message. What is recovered is the signer address.\n     * @param sig bytes signature, the signature is generated using web3.eth.sign()\n     */\n    function recover(bytes32 hash, bytes memory sig)\n        public\n        pure\n        returns (address)\n    {\n        bytes32 r;\n        bytes32 s;\n        uint8 v;\n\n        //Check the signature length\n        if (sig.length != 65) {\n            return (address(0));\n        }\n\n        // Divide the signature in r, s and v variables\n        assembly {\n            r := mload(add(sig, 32))\n            s := mload(add(sig, 64))\n            v := byte(0, mload(add(sig, 96)))\n        }\n\n        // Version of signature should be 27 or 28, but 0 and 1 are also possible versions\n        if (v < 27) {\n            v += 27;\n        }\n\n        // If the version is correct return the signer address\n        if (v != 27 && v != 28) {\n            return (address(0));\n        } else {\n            bytes memory prefix = \"\\x19Ethereum Signed Message:\\n32\";\n            bytes32 prefixedHash = keccak256(abi.encodePacked(prefix, hash));\n            return ecrecover(prefixedHash, v, r, s);\n        }\n    }\n\n    function getMinimumAmount(uint256 paintingsCount)\n        public\n        pure\n        returns (uint256)\n    {\n        uint256 minimumAmount = 0;\n\n        if (paintingsCount <= 1000) {\n            minimumAmount = 0.01 ether;\n        } else if (paintingsCount <= 3000) {\n            minimumAmount = 0.03 ether;\n        } else if (paintingsCount <= 6000) {\n            minimumAmount = 0.04 ether;\n        } else if (paintingsCount <= 10000) {\n            minimumAmount = 0.05 ether;\n        } else if (paintingsCount <= 14000) {\n            minimumAmount = 0.07 ether;\n        } else if (paintingsCount <= 14300) {\n            minimumAmount = 0.1 ether;\n        } else if (paintingsCount <= 14500) {\n            minimumAmount = 0.16 ether;\n        } else if (paintingsCount <= 14550) {\n            minimumAmount = 0.27 ether;\n        } else if (paintingsCount <= 14576) {\n            minimumAmount = 0.49 ether;\n        } else if (paintingsCount <= 14590) {\n            minimumAmount = 0.92 ether;\n        } else {\n            minimumAmount = 1.85 ether;\n        }\n\n        return minimumAmount;\n    }\n\n    function mint(bytes32 hash, string memory tokenURI)\n        public\n        payable\n        returns (uint256)\n    {\n        require(hashes[hash] == 0, \"AlgoPainterGweiItem: Already registered!\");\n        require(paintings < 14599, \"AlgoPainterGweiItem: Gwei is retired!\");\n\n        uint256 minimumAmount = getMinimumAmount(paintings);\n        require(\n            msg.value >= minimumAmount,\n            \"AlgoPainterGweiItem: Invalid Amount\"\n        );\n\n        _tokenIds.increment();\n\n        uint256 newItemId = _tokenIds.current();\n        _mint(msg.sender, newItemId);\n        _setTokenURI(newItemId, tokenURI);\n\n        hashes[hash] = newItemId;\n\n        paintings++;\n\n        emit NewPaint(newItemId, msg.sender, hash);\n\n        return newItemId;\n    }\n\n    function withdraw() public {\n        require(msg.sender == owner, \"AlgoPainterGweiItem: Invalid msg.sender\");\n        owner.transfer(address(this).balance);\n    }\n\n    function getCurrentAmount() public view returns (uint256) {\n        return getMinimumAmount(paintings + 1);\n    }\n\n    function getTokenByHash(bytes32 hash) public view returns (uint256) {\n        return hashes[hash];\n    }\n\n    function updateTokenURI(\n        uint256 tokenId,\n        string calldata tokenURI,\n        bytes calldata signature\n    ) public {\n        bytes32 hash = hashData(tokenId, tokenURI);\n        address validator = recover(hash, signature);\n\n        require(\n            validator != address(0),\n            \"AlgoPainterGweiItem:INVALID_SIGNATURE\"\n        );\n        require(\n            hasRole(VALIDATOR_ROLE, validator),\n            \"AlgoPainterGweiItem:INVALID_VALIDATOR\"\n        );\n\n        _setTokenURI(tokenId, tokenURI);\n    }\n}\n",
  "sourcePath": "/Users/gleisson/Documents/algopainter/algopainter-smartcontracts/contracts/AlgoPainterGweiItem.sol",
  "compiler": {
    "name": "solc",
    "version": "0.7.4+commit.3f05b770.Emscripten.clang"
  },
  "schemaVersion": "3.3.3",
  "updatedAt": "2021-03-20T23:42:49.413Z",
  "networkType": "ethereum",
  "devdoc": {
    "kind": "dev",
    "methods": {
      "approve(address,uint256)": {
        "details": "See {IERC721-approve}."
      },
      "balanceOf(address)": {
        "details": "See {IERC721-balanceOf}."
      },
      "baseURI()": {
        "details": "Returns the base URI set via {_setBaseURI}. This will be automatically added as a prefix in {tokenURI} to each token's URI, or to the token ID if no specific URI is set for that token ID."
      },
      "getApproved(uint256)": {
        "details": "See {IERC721-getApproved}."
      },
      "getRoleAdmin(bytes32)": {
        "details": "Returns the admin role that controls `role`. See {grantRole} and {revokeRole}. To change a role's admin, use {_setRoleAdmin}."
      },
      "getRoleMember(bytes32,uint256)": {
        "details": "Returns one of the accounts that have `role`. `index` must be a value between 0 and {getRoleMemberCount}, non-inclusive. Role bearers are not sorted in any particular way, and their ordering may change at any point. WARNING: When using {getRoleMember} and {getRoleMemberCount}, make sure you perform all queries on the same block. See the following https://forum.openzeppelin.com/t/iterating-over-elements-on-enumerableset-in-openzeppelin-contracts/2296[forum post] for more information."
      },
      "getRoleMemberCount(bytes32)": {
        "details": "Returns the number of accounts that have `role`. Can be used together with {getRoleMember} to enumerate all bearers of a role."
      },
      "grantRole(bytes32,address)": {
        "details": "Grants `role` to `account`. If `account` had not been already granted `role`, emits a {RoleGranted} event. Requirements: - the caller must have ``role``'s admin role."
      },
      "hasRole(bytes32,address)": {
        "details": "Returns `true` if `account` has been granted `role`."
      },
      "isApprovedForAll(address,address)": {
        "details": "See {IERC721-isApprovedForAll}."
      },
      "name()": {
        "details": "See {IERC721Metadata-name}."
      },
      "ownerOf(uint256)": {
        "details": "See {IERC721-ownerOf}."
      },
      "recover(bytes32,bytes)": {
        "params": {
          "hash": "bytes32 message, the hash is the signed message. What is recovered is the signer address.",
          "sig": "bytes signature, the signature is generated using web3.eth.sign()"
        }
      },
      "renounceRole(bytes32,address)": {
        "details": "Revokes `role` from the calling account. Roles are often managed via {grantRole} and {revokeRole}: this function's purpose is to provide a mechanism for accounts to lose their privileges if they are compromised (such as when a trusted device is misplaced). If the calling account had been granted `role`, emits a {RoleRevoked} event. Requirements: - the caller must be `account`."
      },
      "revokeRole(bytes32,address)": {
        "details": "Revokes `role` from `account`. If `account` had been granted `role`, emits a {RoleRevoked} event. Requirements: - the caller must have ``role``'s admin role."
      },
      "safeTransferFrom(address,address,uint256)": {
        "details": "See {IERC721-safeTransferFrom}."
      },
      "safeTransferFrom(address,address,uint256,bytes)": {
        "details": "See {IERC721-safeTransferFrom}."
      },
      "setApprovalForAll(address,bool)": {
        "details": "See {IERC721-setApprovalForAll}."
      },
      "supportsInterface(bytes4)": {
        "details": "See {IERC165-supportsInterface}. Time complexity O(1), guaranteed to always use less than 30 000 gas."
      },
      "symbol()": {
        "details": "See {IERC721Metadata-symbol}."
      },
      "tokenByIndex(uint256)": {
        "details": "See {IERC721Enumerable-tokenByIndex}."
      },
      "tokenOfOwnerByIndex(address,uint256)": {
        "details": "See {IERC721Enumerable-tokenOfOwnerByIndex}."
      },
      "tokenURI(uint256)": {
        "details": "See {IERC721Metadata-tokenURI}."
      },
      "totalSupply()": {
        "details": "See {IERC721Enumerable-totalSupply}."
      },
      "transferFrom(address,address,uint256)": {
        "details": "See {IERC721-transferFrom}."
      }
    },
    "version": 1
  },
  "userdoc": {
    "kind": "user",
    "methods": {
      "recover(bytes32,bytes)": {
        "notice": "Recover signer address from a message by using his signature"
      }
    },
    "version": 1
  }
}