{
  "contractName": "AlgoPainterGweiItem",
  "abi": [
    {
      "inputs": [],
      "stateMutability": "nonpayable",
      "type": "constructor"
    },
    {
      "anonymous": false,
      "inputs": [
        {
          "indexed": true,
          "internalType": "address",
          "name": "owner",
          "type": "address"
        },
        {
          "indexed": true,
          "internalType": "address",
          "name": "approved",
          "type": "address"
        },
        {
          "indexed": true,
          "internalType": "uint256",
          "name": "tokenId",
          "type": "uint256"
        }
      ],
      "name": "Approval",
      "type": "event"
    },
    {
      "anonymous": false,
      "inputs": [
        {
          "indexed": true,
          "internalType": "address",
          "name": "owner",
          "type": "address"
        },
        {
          "indexed": true,
          "internalType": "address",
          "name": "operator",
          "type": "address"
        },
        {
          "indexed": false,
          "internalType": "bool",
          "name": "approved",
          "type": "bool"
        }
      ],
      "name": "ApprovalForAll",
      "type": "event"
    },
    {
      "anonymous": false,
      "inputs": [
        {
          "indexed": true,
          "internalType": "uint256",
          "name": "tokenId",
          "type": "uint256"
        },
        {
          "indexed": true,
          "internalType": "address",
          "name": "owner",
          "type": "address"
        },
        {
          "indexed": true,
          "internalType": "bytes32",
          "name": "hash",
          "type": "bytes32"
        }
      ],
      "name": "NewPaint",
      "type": "event"
    },
    {
      "anonymous": false,
      "inputs": [
        {
          "indexed": true,
          "internalType": "bytes32",
          "name": "role",
          "type": "bytes32"
        },
        {
          "indexed": true,
          "internalType": "bytes32",
          "name": "previousAdminRole",
          "type": "bytes32"
        },
        {
          "indexed": true,
          "internalType": "bytes32",
          "name": "newAdminRole",
          "type": "bytes32"
        }
      ],
      "name": "RoleAdminChanged",
      "type": "event"
    },
    {
      "anonymous": false,
      "inputs": [
        {
          "indexed": true,
          "internalType": "bytes32",
          "name": "role",
          "type": "bytes32"
        },
        {
          "indexed": true,
          "internalType": "address",
          "name": "account",
          "type": "address"
        },
        {
          "indexed": true,
          "internalType": "address",
          "name": "sender",
          "type": "address"
        }
      ],
      "name": "RoleGranted",
      "type": "event"
    },
    {
      "anonymous": false,
      "inputs": [
        {
          "indexed": true,
          "internalType": "bytes32",
          "name": "role",
          "type": "bytes32"
        },
        {
          "indexed": true,
          "internalType": "address",
          "name": "account",
          "type": "address"
        },
        {
          "indexed": true,
          "internalType": "address",
          "name": "sender",
          "type": "address"
        }
      ],
      "name": "RoleRevoked",
      "type": "event"
    },
    {
      "anonymous": false,
      "inputs": [
        {
          "indexed": true,
          "internalType": "address",
          "name": "from",
          "type": "address"
        },
        {
          "indexed": true,
          "internalType": "address",
          "name": "to",
          "type": "address"
        },
        {
          "indexed": true,
          "internalType": "uint256",
          "name": "tokenId",
          "type": "uint256"
        }
      ],
      "name": "Transfer",
      "type": "event"
    },
    {
      "inputs": [],
      "name": "DEFAULT_ADMIN_ROLE",
      "outputs": [
        {
          "internalType": "bytes32",
          "name": "",
          "type": "bytes32"
        }
      ],
      "stateMutability": "view",
      "type": "function",
      "constant": true
    },
    {
      "inputs": [],
      "name": "VALIDATOR_ROLE",
      "outputs": [
        {
          "internalType": "bytes32",
          "name": "",
          "type": "bytes32"
        }
      ],
      "stateMutability": "view",
      "type": "function",
      "constant": true
    },
    {
      "inputs": [
        {
          "internalType": "address",
          "name": "to",
          "type": "address"
        },
        {
          "internalType": "uint256",
          "name": "tokenId",
          "type": "uint256"
        }
      ],
      "name": "approve",
      "outputs": [],
      "stateMutability": "nonpayable",
      "type": "function"
    },
    {
      "inputs": [
        {
          "internalType": "address",
          "name": "owner",
          "type": "address"
        }
      ],
      "name": "balanceOf",
      "outputs": [
        {
          "internalType": "uint256",
          "name": "",
          "type": "uint256"
        }
      ],
      "stateMutability": "view",
      "type": "function",
      "constant": true
    },
    {
      "inputs": [],
      "name": "baseURI",
      "outputs": [
        {
          "internalType": "string",
          "name": "",
          "type": "string"
        }
      ],
      "stateMutability": "view",
      "type": "function",
      "constant": true
    },
    {
      "inputs": [
        {
          "internalType": "uint256",
          "name": "tokenId",
          "type": "uint256"
        }
      ],
      "name": "getApproved",
      "outputs": [
        {
          "internalType": "address",
          "name": "",
          "type": "address"
        }
      ],
      "stateMutability": "view",
      "type": "function",
      "constant": true
    },
    {
      "inputs": [
        {
          "internalType": "bytes32",
          "name": "role",
          "type": "bytes32"
        }
      ],
      "name": "getRoleAdmin",
      "outputs": [
        {
          "internalType": "bytes32",
          "name": "",
          "type": "bytes32"
        }
      ],
      "stateMutability": "view",
      "type": "function",
      "constant": true
    },
    {
      "inputs": [
        {
          "internalType": "bytes32",
          "name": "role",
          "type": "bytes32"
        },
        {
          "internalType": "uint256",
          "name": "index",
          "type": "uint256"
        }
      ],
      "name": "getRoleMember",
      "outputs": [
        {
          "internalType": "address",
          "name": "",
          "type": "address"
        }
      ],
      "stateMutability": "view",
      "type": "function",
      "constant": true
    },
    {
      "inputs": [
        {
          "internalType": "bytes32",
          "name": "role",
          "type": "bytes32"
        }
      ],
      "name": "getRoleMemberCount",
      "outputs": [
        {
          "internalType": "uint256",
          "name": "",
          "type": "uint256"
        }
      ],
      "stateMutability": "view",
      "type": "function",
      "constant": true
    },
    {
      "inputs": [
        {
          "internalType": "bytes32",
          "name": "role",
          "type": "bytes32"
        },
        {
          "internalType": "address",
          "name": "account",
          "type": "address"
        }
      ],
      "name": "grantRole",
      "outputs": [],
      "stateMutability": "nonpayable",
      "type": "function"
    },
    {
      "inputs": [
        {
          "internalType": "bytes32",
          "name": "role",
          "type": "bytes32"
        },
        {
          "internalType": "address",
          "name": "account",
          "type": "address"
        }
      ],
      "name": "hasRole",
      "outputs": [
        {
          "internalType": "bool",
          "name": "",
          "type": "bool"
        }
      ],
      "stateMutability": "view",
      "type": "function",
      "constant": true
    },
    {
      "inputs": [
        {
          "internalType": "address",
          "name": "owner",
          "type": "address"
        },
        {
          "internalType": "address",
          "name": "operator",
          "type": "address"
        }
      ],
      "name": "isApprovedForAll",
      "outputs": [
        {
          "internalType": "bool",
          "name": "",
          "type": "bool"
        }
      ],
      "stateMutability": "view",
      "type": "function",
      "constant": true
    },
    {
      "inputs": [],
      "name": "name",
      "outputs": [
        {
          "internalType": "string",
          "name": "",
          "type": "string"
        }
      ],
      "stateMutability": "view",
      "type": "function",
      "constant": true
    },
    {
      "inputs": [
        {
          "internalType": "uint256",
          "name": "tokenId",
          "type": "uint256"
        }
      ],
      "name": "ownerOf",
      "outputs": [
        {
          "internalType": "address",
          "name": "",
          "type": "address"
        }
      ],
      "stateMutability": "view",
      "type": "function",
      "constant": true
    },
    {
      "inputs": [
        {
          "internalType": "bytes32",
          "name": "role",
          "type": "bytes32"
        },
        {
          "internalType": "address",
          "name": "account",
          "type": "address"
        }
      ],
      "name": "renounceRole",
      "outputs": [],
      "stateMutability": "nonpayable",
      "type": "function"
    },
    {
      "inputs": [
        {
          "internalType": "bytes32",
          "name": "role",
          "type": "bytes32"
        },
        {
          "internalType": "address",
          "name": "account",
          "type": "address"
        }
      ],
      "name": "revokeRole",
      "outputs": [],
      "stateMutability": "nonpayable",
      "type": "function"
    },
    {
      "inputs": [
        {
          "internalType": "address",
          "name": "from",
          "type": "address"
        },
        {
          "internalType": "address",
          "name": "to",
          "type": "address"
        },
        {
          "internalType": "uint256",
          "name": "tokenId",
          "type": "uint256"
        }
      ],
      "name": "safeTransferFrom",
      "outputs": [],
      "stateMutability": "nonpayable",
      "type": "function"
    },
    {
      "inputs": [
        {
          "internalType": "address",
          "name": "from",
          "type": "address"
        },
        {
          "internalType": "address",
          "name": "to",
          "type": "address"
        },
        {
          "internalType": "uint256",
          "name": "tokenId",
          "type": "uint256"
        },
        {
          "internalType": "bytes",
          "name": "_data",
          "type": "bytes"
        }
      ],
      "name": "safeTransferFrom",
      "outputs": [],
      "stateMutability": "nonpayable",
      "type": "function"
    },
    {
      "inputs": [
        {
          "internalType": "address",
          "name": "operator",
          "type": "address"
        },
        {
          "internalType": "bool",
          "name": "approved",
          "type": "bool"
        }
      ],
      "name": "setApprovalForAll",
      "outputs": [],
      "stateMutability": "nonpayable",
      "type": "function"
    },
    {
      "inputs": [
        {
          "internalType": "bytes4",
          "name": "interfaceId",
          "type": "bytes4"
        }
      ],
      "name": "supportsInterface",
      "outputs": [
        {
          "internalType": "bool",
          "name": "",
          "type": "bool"
        }
      ],
      "stateMutability": "view",
      "type": "function",
      "constant": true
    },
    {
      "inputs": [],
      "name": "symbol",
      "outputs": [
        {
          "internalType": "string",
          "name": "",
          "type": "string"
        }
      ],
      "stateMutability": "view",
      "type": "function",
      "constant": true
    },
    {
      "inputs": [
        {
          "internalType": "uint256",
          "name": "index",
          "type": "uint256"
        }
      ],
      "name": "tokenByIndex",
      "outputs": [
        {
          "internalType": "uint256",
          "name": "",
          "type": "uint256"
        }
      ],
      "stateMutability": "view",
      "type": "function",
      "constant": true
    },
    {
      "inputs": [
        {
          "internalType": "address",
          "name": "owner",
          "type": "address"
        },
        {
          "internalType": "uint256",
          "name": "index",
          "type": "uint256"
        }
      ],
      "name": "tokenOfOwnerByIndex",
      "outputs": [
        {
          "internalType": "uint256",
          "name": "",
          "type": "uint256"
        }
      ],
      "stateMutability": "view",
      "type": "function",
      "constant": true
    },
    {
      "inputs": [
        {
          "internalType": "uint256",
          "name": "tokenId",
          "type": "uint256"
        }
      ],
      "name": "tokenURI",
      "outputs": [
        {
          "internalType": "string",
          "name": "",
          "type": "string"
        }
      ],
      "stateMutability": "view",
      "type": "function",
      "constant": true
    },
    {
      "inputs": [],
      "name": "totalSupply",
      "outputs": [
        {
          "internalType": "uint256",
          "name": "",
          "type": "uint256"
        }
      ],
      "stateMutability": "view",
      "type": "function",
      "constant": true
    },
    {
      "inputs": [
        {
          "internalType": "address",
          "name": "from",
          "type": "address"
        },
        {
          "internalType": "address",
          "name": "to",
          "type": "address"
        },
        {
          "internalType": "uint256",
          "name": "tokenId",
          "type": "uint256"
        }
      ],
      "name": "transferFrom",
      "outputs": [],
      "stateMutability": "nonpayable",
      "type": "function"
    },
    {
      "inputs": [
        {
          "internalType": "uint256",
          "name": "tokenId",
          "type": "uint256"
        },
        {
          "internalType": "string",
          "name": "tokenURI",
          "type": "string"
        }
      ],
      "name": "hashData",
      "outputs": [
        {
          "internalType": "bytes32",
          "name": "",
          "type": "bytes32"
        }
      ],
      "stateMutability": "pure",
      "type": "function",
      "constant": true
    },
    {
      "inputs": [
        {
          "internalType": "bytes32",
          "name": "hash",
          "type": "bytes32"
        },
        {
          "internalType": "string",
          "name": "tokenURI",
          "type": "string"
        }
      ],
      "name": "hashMint",
      "outputs": [
        {
          "internalType": "bytes32",
          "name": "",
          "type": "bytes32"
        }
      ],
      "stateMutability": "pure",
      "type": "function",
      "constant": true
    },
    {
      "inputs": [
        {
          "internalType": "bytes32",
          "name": "hash",
          "type": "bytes32"
        },
        {
          "internalType": "bytes",
          "name": "sig",
          "type": "bytes"
        }
      ],
      "name": "recover",
      "outputs": [
        {
          "internalType": "address",
          "name": "",
          "type": "address"
        }
      ],
      "stateMutability": "pure",
      "type": "function",
      "constant": true
    },
    {
      "inputs": [],
      "name": "getMinimumAmount",
      "outputs": [
        {
          "internalType": "uint256",
          "name": "",
          "type": "uint256"
        }
      ],
      "stateMutability": "view",
      "type": "function",
      "constant": true
    },
    {
      "inputs": [
        {
          "internalType": "bytes32",
          "name": "hash",
          "type": "bytes32"
        },
        {
          "internalType": "string",
          "name": "tokenURI",
          "type": "string"
        }
      ],
      "name": "mint",
      "outputs": [
        {
          "internalType": "uint256",
          "name": "",
          "type": "uint256"
        }
      ],
      "stateMutability": "payable",
      "type": "function",
      "payable": true
    },
    {
      "inputs": [],
      "name": "withdraw",
      "outputs": [],
      "stateMutability": "nonpayable",
      "type": "function"
    },
    {
      "inputs": [
        {
          "internalType": "bytes32",
          "name": "hash",
          "type": "bytes32"
        }
      ],
      "name": "getTokenByHash",
      "outputs": [
        {
          "internalType": "uint256",
          "name": "",
          "type": "uint256"
        }
      ],
      "stateMutability": "view",
      "type": "function",
      "constant": true
    },
    {
      "inputs": [
        {
          "internalType": "uint256",
          "name": "tokenId",
          "type": "uint256"
        },
        {
          "internalType": "string",
          "name": "tokenURI",
          "type": "string"
        },
        {
          "internalType": "bytes",
          "name": "signature",
          "type": "bytes"
        }
      ],
      "name": "updateTokenURI",
      "outputs": [],
      "stateMutability": "nonpayable",
      "type": "function"
    }
  ],
  "bytecode": "0x60806040523480156200001157600080fd5b506040518060400160405280601681526020017f416c676f205061696e7465722047776569204974656d000000000000000000008152506040518060400160405280600481526020017f4150474900000000000000000000000000000000000000000000000000000000815250620000a26000801b620000966200017d60201b60201c565b6200018560201b60201c565b620000ba6301ffc9a760e01b6200019b60201b60201c565b8160079080519060200190620000d29291906200041c565b508060089080519060200190620000eb9291906200041c565b50620001046380ac58cd60e01b6200019b60201b60201c565b6200011c635b5e139f60e01b6200019b60201b60201c565b6200013463780e9d6360e01b6200019b60201b60201c565b505033600d60006101000a81548173ffffffffffffffffffffffffffffffffffffffff021916908373ffffffffffffffffffffffffffffffffffffffff160217905550620004d2565b600033905090565b620001978282620002a460201b60201c565b5050565b63ffffffff60e01b817bffffffffffffffffffffffffffffffffffffffffffffffffffffffff1916141562000238576040517f08c379a000000000000000000000000000000000000000000000000000000000815260040180806020018281038252601c8152602001807f4552433136353a20696e76616c696420696e746572666163652069640000000081525060200191505060405180910390fd5b6001806000837bffffffffffffffffffffffffffffffffffffffffffffffffffffffff19167bffffffffffffffffffffffffffffffffffffffffffffffffffffffff1916815260200190815260200160002060006101000a81548160ff02191690831515021790555050565b620002d2816000808581526020019081526020016000206000016200034760201b620028581790919060201c565b156200034357620002e86200017d60201b60201c565b73ffffffffffffffffffffffffffffffffffffffff168173ffffffffffffffffffffffffffffffffffffffff16837f2f8788117e7eff1d82e926ec794901d17c78024a50270940304540a733656f0d60405160405180910390a45b5050565b600062000377836000018373ffffffffffffffffffffffffffffffffffffffff1660001b6200037f60201b60201c565b905092915050565b6000620003938383620003f960201b60201c565b620003ee578260000182908060018154018082558091505060019003906000526020600020016000909190919091505582600001805490508360010160008481526020019081526020016000208190555060019050620003f3565b600090505b92915050565b600080836001016000848152602001908152602001600020541415905092915050565b828054600181600116156101000203166002900490600052602060002090601f016020900481019282620004545760008555620004a0565b82601f106200046f57805160ff1916838001178555620004a0565b82800160010185558215620004a0579182015b828111156200049f57825182559160200191906001019062000482565b5b509050620004af9190620004b3565b5090565b5b80821115620004ce576000816000905550600101620004b4565b5090565b6141f480620004e26000396000f3fe6080604052600436106101f95760003560e01c80636c0360eb1161010d578063b88d4fde116100a0578063ca15c8731161006f578063ca15c87314610fd4578063d547741f14611023578063e985e9c51461107e578063ee7242e314611105578063f9de5385146111de576101f9565b8063b88d4fde14610cfe578063be7f24d014610e10578063c49baebe14610ef5578063c87b56dd14610f20576101f9565b8063929a0880116100dc578063929a088014610b0057806395d89b4114610be6578063a217fddf14610c76578063a22cb46514610ca1576101f9565b80636c0360eb1461092b57806370a08231146109bb5780639010d07c14610a2057806391d1485414610a8f576101f9565b8063248a9ca3116101905780633ccfd60b1161015f5780633ccfd60b146107ba57806342842e0e146107d15780634f6ccce71461084c57806362066eb31461089b5780636352211e146108c6576101f9565b8063248a9ca3146106465780632f2ff15d146106955780632f745c59146106f057806336568abe1461075f576101f9565b8063095ea7b3116101cc578063095ea7b31461044957806318160ddd146104a457806319045a25146104cf57806323b872dd146105cb576101f9565b806301ffc9a7146101fe578063035e4ca01461026e57806306fdde0314610354578063081812fc146103e4575b600080fd5b34801561020a57600080fd5b506102566004803603602081101561022157600080fd5b8101908080357bffffffffffffffffffffffffffffffffffffffffffffffffffffffff1916906020019092919050505061122d565b60405180821515815260200191505060405180910390f35b34801561027a57600080fd5b5061033e6004803603604081101561029157600080fd5b8101908080359060200190929190803590602001906401000000008111156102b857600080fd5b8201836020820111156102ca57600080fd5b803590602001918460018302840111640100000000831117156102ec57600080fd5b91908080601f016020809104026020016040519081016040528093929190818152602001838380828437600081840152601f19601f820116905080830192505050505050509192919290505050611295565b6040518082815260200191505060405180910390f35b34801561036057600080fd5b50610369611319565b6040518080602001828103825283818151815260200191508051906020019080838360005b838110156103a957808201518184015260208101905061038e565b50505050905090810190601f1680156103d65780820380516001836020036101000a031916815260200191505b509250505060405180910390f35b3480156103f057600080fd5b5061041d6004803603602081101561040757600080fd5b81019080803590602001909291905050506113bb565b604051808273ffffffffffffffffffffffffffffffffffffffff16815260200191505060405180910390f35b34801561045557600080fd5b506104a26004803603604081101561046c57600080fd5b81019080803573ffffffffffffffffffffffffffffffffffffffff16906020019092919080359060200190929190505050611456565b005b3480156104b057600080fd5b506104b961159a565b6040518082815260200191505060405180910390f35b3480156104db57600080fd5b5061059f600480360360408110156104f257600080fd5b81019080803590602001909291908035906020019064010000000081111561051957600080fd5b82018360208201111561052b57600080fd5b8035906020019184600183028401116401000000008311171561054d57600080fd5b91908080601f016020809104026020016040519081016040528093929190818152602001838380828437600081840152601f19601f8201169050808301925050505050505091929192905050506115ab565b604051808273ffffffffffffffffffffffffffffffffffffffff16815260200191505060405180910390f35b3480156105d757600080fd5b50610644600480360360608110156105ee57600080fd5b81019080803573ffffffffffffffffffffffffffffffffffffffff169060200190929190803573ffffffffffffffffffffffffffffffffffffffff16906020019092919080359060200190929190505050611744565b005b34801561065257600080fd5b5061067f6004803603602081101561066957600080fd5b81019080803590602001909291905050506117ba565b6040518082815260200191505060405180910390f35b3480156106a157600080fd5b506106ee600480360360408110156106b857600080fd5b8101908080359060200190929190803573ffffffffffffffffffffffffffffffffffffffff1690602001909291905050506117d9565b005b3480156106fc57600080fd5b506107496004803603604081101561071357600080fd5b81019080803573ffffffffffffffffffffffffffffffffffffffff16906020019092919080359060200190929190505050611862565b6040518082815260200191505060405180910390f35b34801561076b57600080fd5b506107b86004803603604081101561078257600080fd5b8101908080359060200190929190803573ffffffffffffffffffffffffffffffffffffffff1690602001909291905050506118bd565b005b3480156107c657600080fd5b506107cf611956565b005b3480156107dd57600080fd5b5061084a600480360360608110156107f457600080fd5b81019080803573ffffffffffffffffffffffffffffffffffffffff169060200190929190803573ffffffffffffffffffffffffffffffffffffffff16906020019092919080359060200190929190505050611a67565b005b34801561085857600080fd5b506108856004803603602081101561086f57600080fd5b8101908080359060200190929190505050611a87565b6040518082815260200191505060405180910390f35b3480156108a757600080fd5b506108b0611aaa565b6040518082815260200191505060405180910390f35b3480156108d257600080fd5b506108ff600480360360208110156108e957600080fd5b8101908080359060200190929190505050611abd565b604051808273ffffffffffffffffffffffffffffffffffffffff16815260200191505060405180910390f35b34801561093757600080fd5b50610940611af4565b6040518080602001828103825283818151815260200191508051906020019080838360005b83811015610980578082015181840152602081019050610965565b50505050905090810190601f1680156109ad5780820380516001836020036101000a031916815260200191505b509250505060405180910390f35b3480156109c757600080fd5b50610a0a600480360360208110156109de57600080fd5b81019080803573ffffffffffffffffffffffffffffffffffffffff169060200190929190505050611b96565b6040518082815260200191505060405180910390f35b348015610a2c57600080fd5b50610a6360048036036040811015610a4357600080fd5b810190808035906020019092919080359060200190929190505050611c6b565b604051808273ffffffffffffffffffffffffffffffffffffffff16815260200191505060405180910390f35b348015610a9b57600080fd5b50610ae860048036036040811015610ab257600080fd5b8101908080359060200190929190803573ffffffffffffffffffffffffffffffffffffffff169060200190929190505050611c9c565b60405180821515815260200191505060405180910390f35b348015610b0c57600080fd5b50610bd060048036036040811015610b2357600080fd5b810190808035906020019092919080359060200190640100000000811115610b4a57600080fd5b820183602082011115610b5c57600080fd5b80359060200191846001830284011164010000000083111715610b7e57600080fd5b91908080601f016020809104026020016040519081016040528093929190818152602001838380828437600081840152601f19601f820116905080830192505050505050509192919290505050611ccd565b6040518082815260200191505060405180910390f35b348015610bf257600080fd5b50610bfb611d51565b6040518080602001828103825283818151815260200191508051906020019080838360005b83811015610c3b578082015181840152602081019050610c20565b50505050905090810190601f168015610c685780820380516001836020036101000a031916815260200191505b509250505060405180910390f35b348015610c8257600080fd5b50610c8b611df3565b6040518082815260200191505060405180910390f35b348015610cad57600080fd5b50610cfc60048036036040811015610cc457600080fd5b81019080803573ffffffffffffffffffffffffffffffffffffffff169060200190929190803515159060200190929190505050611dfa565b005b348015610d0a57600080fd5b50610e0e60048036036080811015610d2157600080fd5b81019080803573ffffffffffffffffffffffffffffffffffffffff169060200190929190803573ffffffffffffffffffffffffffffffffffffffff1690602001909291908035906020019092919080359060200190640100000000811115610d8857600080fd5b820183602082011115610d9a57600080fd5b80359060200191846001830284011164010000000083111715610dbc57600080fd5b91908080601f016020809104026020016040519081016040528093929190818152602001838380828437600081840152601f19601f820116905080830192505050505050509192919290505050611fb0565b005b348015610e1c57600080fd5b50610ef360048036036060811015610e3357600080fd5b810190808035906020019092919080359060200190640100000000811115610e5a57600080fd5b820183602082011115610e6c57600080fd5b80359060200191846001830284011164010000000083111715610e8e57600080fd5b909192939192939080359060200190640100000000811115610eaf57600080fd5b820183602082011115610ec157600080fd5b80359060200191846001830284011164010000000083111715610ee357600080fd5b9091929391929390505050612028565b005b348015610f0157600080fd5b50610f0a612228565b6040518082815260200191505060405180910390f35b348015610f2c57600080fd5b50610f5960048036036020811015610f4357600080fd5b810190808035906020019092919050505061224c565b6040518080602001828103825283818151815260200191508051906020019080838360005b83811015610f99578082015181840152602081019050610f7e565b50505050905090810190601f168015610fc65780820380516001836020036101000a031916815260200191505b509250505060405180910390f35b348015610fe057600080fd5b5061100d60048036036020811015610ff757600080fd5b810190808035906020019092919050505061251d565b6040518082815260200191505060405180910390f35b34801561102f57600080fd5b5061107c6004803603604081101561104657600080fd5b8101908080359060200190929190803573ffffffffffffffffffffffffffffffffffffffff169060200190929190505050612543565b005b34801561108a57600080fd5b506110ed600480360360408110156110a157600080fd5b81019080803573ffffffffffffffffffffffffffffffffffffffff169060200190929190803573ffffffffffffffffffffffffffffffffffffffff1690602001909291905050506125cc565b60405180821515815260200191505060405180910390f35b6111c86004803603604081101561111b57600080fd5b81019080803590602001909291908035906020019064010000000081111561114257600080fd5b82018360208201111561115457600080fd5b8035906020019184600183028401116401000000008311171561117657600080fd5b91908080601f016020809104026020016040519081016040528093929190818152602001838380828437600081840152601f19601f820116905080830192505050505050509192919290505050612660565b6040518082815260200191505060405180910390f35b3480156111ea57600080fd5b506112176004803603602081101561120157600080fd5b810190808035906020019092919050505061283b565b6040518082815260200191505060405180910390f35b600060016000837bffffffffffffffffffffffffffffffffffffffffffffffffffffffff19167bffffffffffffffffffffffffffffffffffffffffffffffffffffffff1916815260200190815260200160002060009054906101000a900460ff169050919050565b600082826040516020018083815260200182805190602001908083835b602083106112d557805182526020820191506020810190506020830392506112b2565b6001836020036101000a0380198251168184511680821785525050505050509050019250505060405160208183030381529060405280519060200120905092915050565b606060078054600181600116156101000203166002900480601f0160208091040260200160405190810160405280929190818152602001828054600181600116156101000203166002900480156113b15780601f10611386576101008083540402835291602001916113b1565b820191906000526020600020905b81548152906001019060200180831161139457829003601f168201915b5050505050905090565b60006113c682612888565b61141b576040517f08c379a000000000000000000000000000000000000000000000000000000000815260040180806020018281038252602c81526020018061401c602c913960400191505060405180910390fd5b6005600083815260200190815260200160002060009054906101000a900473ffffffffffffffffffffffffffffffffffffffff169050919050565b600061146182611abd565b90508073ffffffffffffffffffffffffffffffffffffffff168373ffffffffffffffffffffffffffffffffffffffff1614156114e8576040517f08c379a00000000000000000000000000000000000000000000000000000000081526004018080602001828103825260218152602001806141196021913960400191505060405180910390fd5b8073ffffffffffffffffffffffffffffffffffffffff166115076128a5565b73ffffffffffffffffffffffffffffffffffffffff1614806115365750611535816115306128a5565b6125cc565b5b61158b576040517f08c379a0000000000000000000000000000000000000000000000000000000008152600401808060200182810382526038815260200180613f4a6038913960400191505060405180910390fd5b61159583836128ad565b505050565b60006115a66003612966565b905090565b60008060008060418551146115c6576000935050505061173e565b6020850151925060408501519150606085015160001a9050601b8160ff1610156115f157601b810190505b601b8160ff16141580156116095750601c8160ff1614155b1561161a576000935050505061173e565b60606040518060400160405280601c81526020017f19457468657265756d205369676e6564204d6573736167653a0a3332000000008152509050600081886040516020018083805190602001908083835b6020831061168e578051825260208201915060208101905060208303925061166b565b6001836020036101000a0380198251168184511680821785525050505050509050018281526020019250505060405160208183030381529060405280519060200120905060018184878760405160008152602001604052604051808581526020018460ff1681526020018381526020018281526020019450505050506020604051602081039080840390855afa15801561172c573d6000803e3d6000fd5b50505060206040510351955050505050505b92915050565b61175561174f6128a5565b8261297b565b6117aa576040517f08c379a000000000000000000000000000000000000000000000000000000000815260040180806020018281038252603181526020018061413a6031913960400191505060405180910390fd5b6117b5838383612a6f565b505050565b6000806000838152602001908152602001600020600201549050919050565b6117ff600080848152602001908152602001600020600201546117fa6128a5565b611c9c565b611854576040517f08c379a000000000000000000000000000000000000000000000000000000000815260040180806020018281038252602f815260200180613df9602f913960400191505060405180910390fd5b61185e8282612cb2565b5050565b60006118b582600260008673ffffffffffffffffffffffffffffffffffffffff1673ffffffffffffffffffffffffffffffffffffffff168152602001908152602001600020612d4590919063ffffffff16565b905092915050565b6118c56128a5565b73ffffffffffffffffffffffffffffffffffffffff168173ffffffffffffffffffffffffffffffffffffffff1614611948576040517f08c379a000000000000000000000000000000000000000000000000000000000815260040180806020018281038252602f815260200180614190602f913960400191505060405180910390fd5b6119528282612d5f565b5050565b600d60009054906101000a900473ffffffffffffffffffffffffffffffffffffffff1673ffffffffffffffffffffffffffffffffffffffff163373ffffffffffffffffffffffffffffffffffffffff16146119fc576040517f08c379a0000000000000000000000000000000000000000000000000000000008152600401808060200182810382526027815260200180613e5a6027913960400191505060405180910390fd5b600d60009054906101000a900473ffffffffffffffffffffffffffffffffffffffff1673ffffffffffffffffffffffffffffffffffffffff166108fc479081150290604051600060405180830381858888f19350505050158015611a64573d6000803e3d6000fd5b50565b611a8283838360405180602001604052806000815250611fb0565b505050565b600080611a9e836003612df290919063ffffffff16565b50905080915050919050565b6000662386f26fc10000600f5401905090565b6000611aed82604051806060016040528060298152602001613fac602991396003612e1e9092919063ffffffff16565b9050919050565b6060600a8054600181600116156101000203166002900480601f016020809104026020016040519081016040528092919081815260200182805460018160011615610100020316600290048015611b8c5780601f10611b6157610100808354040283529160200191611b8c565b820191906000526020600020905b815481529060010190602001808311611b6f57829003601f168201915b5050505050905090565b60008073ffffffffffffffffffffffffffffffffffffffff168273ffffffffffffffffffffffffffffffffffffffff161415611c1d576040517f08c379a000000000000000000000000000000000000000000000000000000000815260040180806020018281038252602a815260200180613f82602a913960400191505060405180910390fd5b611c64600260008473ffffffffffffffffffffffffffffffffffffffff1673ffffffffffffffffffffffffffffffffffffffff168152602001908152602001600020612e3d565b9050919050565b6000611c9482600080868152602001908152602001600020600001612e5290919063ffffffff16565b905092915050565b6000611cc582600080868152602001908152602001600020600001612e6c90919063ffffffff16565b905092915050565b600082826040516020018083815260200182805190602001908083835b60208310611d0d5780518252602082019150602081019050602083039250611cea565b6001836020036101000a0380198251168184511680821785525050505050509050019250505060405160208183030381529060405280519060200120905092915050565b606060088054600181600116156101000203166002900480601f016020809104026020016040519081016040528092919081815260200182805460018160011615610100020316600290048015611de95780601f10611dbe57610100808354040283529160200191611de9565b820191906000526020600020905b815481529060010190602001808311611dcc57829003601f168201915b5050505050905090565b6000801b81565b611e026128a5565b73ffffffffffffffffffffffffffffffffffffffff168273ffffffffffffffffffffffffffffffffffffffff161415611ea3576040517f08c379a00000000000000000000000000000000000000000000000000000000081526004018080602001828103825260198152602001807f4552433732313a20617070726f766520746f2063616c6c65720000000000000081525060200191505060405180910390fd5b8060066000611eb06128a5565b73ffffffffffffffffffffffffffffffffffffffff1673ffffffffffffffffffffffffffffffffffffffff16815260200190815260200160002060008473ffffffffffffffffffffffffffffffffffffffff1673ffffffffffffffffffffffffffffffffffffffff16815260200190815260200160002060006101000a81548160ff0219169083151502179055508173ffffffffffffffffffffffffffffffffffffffff16611f5d6128a5565b73ffffffffffffffffffffffffffffffffffffffff167f17307eab39ab6107e8899845ad3d59bd9653f200f220920489ca2b5937696c318360405180821515815260200191505060405180910390a35050565b611fc1611fbb6128a5565b8361297b565b612016576040517f08c379a000000000000000000000000000000000000000000000000000000000815260040180806020018281038252603181526020018061413a6031913960400191505060405180910390fd5b61202284848484612e9c565b50505050565b60006120788686868080601f016020809104026020016040519081016040528093929190818152602001838380828437600081840152601f19601f82011690508083019250505050505050611ccd565b905060006120ca8285858080601f016020809104026020016040519081016040528093929190818152602001838380828437600081840152601f19601f820116905080830192505050505050506115ab565b9050600073ffffffffffffffffffffffffffffffffffffffff168173ffffffffffffffffffffffffffffffffffffffff161415612152576040517f08c379a0000000000000000000000000000000000000000000000000000000008152600401808060200182810382526025815260200180613ff76025913960400191505060405180910390fd5b61217c7f21702c8af46127c7fa207f89d0b0a8441bb32959a0ac7df790e9ab1a25c9892682611c9c565b6121d1576040517f08c379a000000000000000000000000000000000000000000000000000000000815260040180806020018281038252602581526020018061416b6025913960400191505060405180910390fd5b61221f8787878080601f016020809104026020016040519081016040528093929190818152602001838380828437600081840152601f19601f82011690508083019250505050505050612f0e565b50505050505050565b7f21702c8af46127c7fa207f89d0b0a8441bb32959a0ac7df790e9ab1a25c9892681565b606061225782612888565b6122ac576040517f08c379a000000000000000000000000000000000000000000000000000000000815260040180806020018281038252602f81526020018061409d602f913960400191505060405180910390fd5b6060600960008481526020019081526020016000208054600181600116156101000203166002900480601f0160208091040260200160405190810160405280929190818152602001828054600181600116156101000203166002900480156123555780601f1061232a57610100808354040283529160200191612355565b820191906000526020600020905b81548152906001019060200180831161233857829003601f168201915b505050505090506060612366611af4565b905060008151141561237c578192505050612518565b60008251111561244d5780826040516020018083805190602001908083835b602083106123be578051825260208201915060208101905060208303925061239b565b6001836020036101000a03801982511681845116808217855250505050505090500182805190602001908083835b6020831061240f57805182526020820191506020810190506020830392506123ec565b6001836020036101000a0380198251168184511680821785525050505050509050019250505060405160208183030381529060405292505050612518565b8061245785612f98565b6040516020018083805190602001908083835b6020831061248d578051825260208201915060208101905060208303925061246a565b6001836020036101000a03801982511681845116808217855250505050505090500182805190602001908083835b602083106124de57805182526020820191506020810190506020830392506124bb565b6001836020036101000a03801982511681845116808217855250505050505090500192505050604051602081830303815290604052925050505b919050565b600061253c6000808481526020019081526020016000206000016130df565b9050919050565b612569600080848152602001908152602001600020600201546125646128a5565b611c9c565b6125be576040517f08c379a0000000000000000000000000000000000000000000000000000000008152600401808060200182810382526030815260200180613f1a6030913960400191505060405180910390fd5b6125c88282612d5f565b5050565b6000600660008473ffffffffffffffffffffffffffffffffffffffff1673ffffffffffffffffffffffffffffffffffffffff16815260200190815260200160002060008373ffffffffffffffffffffffffffffffffffffffff1673ffffffffffffffffffffffffffffffffffffffff16815260200190815260200160002060009054906101000a900460ff16905092915050565b600080600c600085815260200190815260200160002054146126cd576040517f08c379a00000000000000000000000000000000000000000000000000000000081526004018080602001828103825260288152602001806140cc6028913960400191505060405180910390fd5b6103e8600e5410612729576040517f08c379a00000000000000000000000000000000000000000000000000000000081526004018080602001828103825260258152602001806140f46025913960400191505060405180910390fd5b6000612733611aaa565b90508034101561278e576040517f08c379a0000000000000000000000000000000000000000000000000000000008152600401808060200182810382526023815260200180613e816023913960400191505060405180910390fd5b612798600b6130f4565b34600f8190555060006127ab600b61310a565b90506127b73382613118565b6127c18185612f0e565b80600c600087815260200190815260200160002081905550600e60008154809291906001019190505550843373ffffffffffffffffffffffffffffffffffffffff16827fabaf4f76d21b13fdfdf1e3dfe2f8ecb8c3ceb66f127d31f3371d0f8acac160f660405160405180910390a4809250505092915050565b6000600c6000838152602001908152602001600020549050919050565b6000612880836000018373ffffffffffffffffffffffffffffffffffffffff1660001b61330c565b905092915050565b600061289e82600361337c90919063ffffffff16565b9050919050565b600033905090565b816005600083815260200190815260200160002060006101000a81548173ffffffffffffffffffffffffffffffffffffffff021916908373ffffffffffffffffffffffffffffffffffffffff160217905550808273ffffffffffffffffffffffffffffffffffffffff1661292083611abd565b73ffffffffffffffffffffffffffffffffffffffff167f8c5be1e5ebec7d5bd14f71427d1e84f3dd0314c0f7b2291e5b200ac8c7c3b92560405160405180910390a45050565b600061297482600001613396565b9050919050565b600061298682612888565b6129db576040517f08c379a000000000000000000000000000000000000000000000000000000000815260040180806020018281038252602c815260200180613eee602c913960400191505060405180910390fd5b60006129e683611abd565b90508073ffffffffffffffffffffffffffffffffffffffff168473ffffffffffffffffffffffffffffffffffffffff161480612a5557508373ffffffffffffffffffffffffffffffffffffffff16612a3d846113bb565b73ffffffffffffffffffffffffffffffffffffffff16145b80612a665750612a6581856125cc565b5b91505092915050565b8273ffffffffffffffffffffffffffffffffffffffff16612a8f82611abd565b73ffffffffffffffffffffffffffffffffffffffff1614612afb576040517f08c379a00000000000000000000000000000000000000000000000000000000081526004018080602001828103825260298152602001806140746029913960400191505060405180910390fd5b600073ffffffffffffffffffffffffffffffffffffffff168273ffffffffffffffffffffffffffffffffffffffff161415612b81576040517f08c379a0000000000000000000000000000000000000000000000000000000008152600401808060200182810382526024815260200180613ea46024913960400191505060405180910390fd5b612b8c8383836133a7565b612b976000826128ad565b612be881600260008673ffffffffffffffffffffffffffffffffffffffff1673ffffffffffffffffffffffffffffffffffffffff1681526020019081526020016000206133ac90919063ffffffff16565b50612c3a81600260008573ffffffffffffffffffffffffffffffffffffffff1673ffffffffffffffffffffffffffffffffffffffff1681526020019081526020016000206133c690919063ffffffff16565b50612c51818360036133e09092919063ffffffff16565b50808273ffffffffffffffffffffffffffffffffffffffff168473ffffffffffffffffffffffffffffffffffffffff167fddf252ad1be2c89b69c2b068fc378daa952ba7f163c4a11628f55a4df523b3ef60405160405180910390a4505050565b612cd98160008085815260200190815260200160002060000161285890919063ffffffff16565b15612d4157612ce66128a5565b73ffffffffffffffffffffffffffffffffffffffff168173ffffffffffffffffffffffffffffffffffffffff16837f2f8788117e7eff1d82e926ec794901d17c78024a50270940304540a733656f0d60405160405180910390a45b5050565b6000612d548360000183613415565b60001c905092915050565b612d868160008085815260200190815260200160002060000161349890919063ffffffff16565b15612dee57612d936128a5565b73ffffffffffffffffffffffffffffffffffffffff168173ffffffffffffffffffffffffffffffffffffffff16837ff6391f5c32d9c69d2a47ea670b442974b53935d1edc7fd64eb21e047a839171b60405160405180910390a45b5050565b600080600080612e0586600001866134c8565b915091508160001c8160001c9350935050509250929050565b6000612e31846000018460001b84613561565b60001c90509392505050565b6000612e4b82600001613657565b9050919050565b6000612e618360000183613415565b60001c905092915050565b6000612e94836000018373ffffffffffffffffffffffffffffffffffffffff1660001b613668565b905092915050565b612ea7848484612a6f565b612eb38484848461368b565b612f08576040517f08c379a0000000000000000000000000000000000000000000000000000000008152600401808060200182810382526032815260200180613e286032913960400191505060405180910390fd5b50505050565b612f1782612888565b612f6c576040517f08c379a000000000000000000000000000000000000000000000000000000000815260040180806020018281038252602c815260200180614048602c913960400191505060405180910390fd5b80600960008481526020019081526020016000209080519060200190612f93929190613d2b565b505050565b60606000821415612fe0576040518060400160405280600181526020017f300000000000000000000000000000000000000000000000000000000000000081525090506130da565b600082905060005b6000821461300a578080600101915050600a828161300257fe5b049150612fe8565b60608167ffffffffffffffff8111801561302357600080fd5b506040519080825280601f01601f1916602001820160405280156130565781602001600182028036833780820191505090505b50905060006001830390508593505b600084146130d257600a848161307757fe5b0660300160f81b8282806001900393508151811061309157fe5b60200101907effffffffffffffffffffffffffffffffffffffffffffffffffffffffffffff1916908160001a905350600a84816130ca57fe5b049350613065565b819450505050505b919050565b60006130ed82600001613657565b9050919050565b6001816000016000828254019250508190555050565b600081600001549050919050565b600073ffffffffffffffffffffffffffffffffffffffff168273ffffffffffffffffffffffffffffffffffffffff1614156131bb576040517f08c379a00000000000000000000000000000000000000000000000000000000081526004018080602001828103825260208152602001807f4552433732313a206d696e7420746f20746865207a65726f206164647265737381525060200191505060405180910390fd5b6131c481612888565b15613237576040517f08c379a000000000000000000000000000000000000000000000000000000000815260040180806020018281038252601c8152602001807f4552433732313a20746f6b656e20616c7265616479206d696e7465640000000081525060200191505060405180910390fd5b613243600083836133a7565b61329481600260008573ffffffffffffffffffffffffffffffffffffffff1673ffffffffffffffffffffffffffffffffffffffff1681526020019081526020016000206133c690919063ffffffff16565b506132ab818360036133e09092919063ffffffff16565b50808273ffffffffffffffffffffffffffffffffffffffff16600073ffffffffffffffffffffffffffffffffffffffff167fddf252ad1be2c89b69c2b068fc378daa952ba7f163c4a11628f55a4df523b3ef60405160405180910390a45050565b60006133188383613668565b613371578260000182908060018154018082558091505060019003906000526020600020016000909190919091505582600001805490508360010160008481526020019081526020016000208190555060019050613376565b600090505b92915050565b600061338e836000018360001b6138a4565b905092915050565b600081600001805490509050919050565b505050565b60006133be836000018360001b6138c7565b905092915050565b60006133d8836000018360001b61330c565b905092915050565b600061340c846000018460001b8473ffffffffffffffffffffffffffffffffffffffff1660001b6139af565b90509392505050565b600081836000018054905011613476576040517f08c379a0000000000000000000000000000000000000000000000000000000008152600401808060200182810382526022815260200180613dd76022913960400191505060405180910390fd5b82600001828154811061348557fe5b9060005260206000200154905092915050565b60006134c0836000018373ffffffffffffffffffffffffffffffffffffffff1660001b6138c7565b905092915050565b6000808284600001805490501161352a576040517f08c379a0000000000000000000000000000000000000000000000000000000008152600401808060200182810382526022815260200180613fd56022913960400191505060405180910390fd5b600084600001848154811061353b57fe5b906000526020600020906002020190508060000154816001015492509250509250929050565b60008084600101600085815260200190815260200160002054905060008114158390613628576040517f08c379a00000000000000000000000000000000000000000000000000000000081526004018080602001828103825283818151815260200191508051906020019080838360005b838110156135ed5780820151818401526020810190506135d2565b50505050905090810190601f16801561361a5780820380516001836020036101000a031916815260200191505b509250505060405180910390fd5b5084600001600182038154811061363b57fe5b9060005260206000209060020201600101549150509392505050565b600081600001805490509050919050565b600080836001016000848152602001908152602001600020541415905092915050565b60006136ac8473ffffffffffffffffffffffffffffffffffffffff16613a8b565b6136b9576001905061389c565b606061382363150b7a0260e01b6136ce6128a5565b888787604051602401808573ffffffffffffffffffffffffffffffffffffffff1681526020018473ffffffffffffffffffffffffffffffffffffffff16815260200183815260200180602001828103825283818151815260200191508051906020019080838360005b83811015613752578082015181840152602081019050613737565b50505050905090810190601f16801561377f5780820380516001836020036101000a031916815260200191505b5095505050505050604051602081830303815290604052907bffffffffffffffffffffffffffffffffffffffffffffffffffffffff19166020820180517bffffffffffffffffffffffffffffffffffffffffffffffffffffffff8381831617835250505050604051806060016040528060328152602001613e28603291398773ffffffffffffffffffffffffffffffffffffffff16613a9e9092919063ffffffff16565b9050600081806020019051602081101561383c57600080fd5b8101908080519060200190929190505050905063150b7a0260e01b7bffffffffffffffffffffffffffffffffffffffffffffffffffffffff1916817bffffffffffffffffffffffffffffffffffffffffffffffffffffffff191614925050505b949350505050565b600080836001016000848152602001908152602001600020541415905092915050565b600080836001016000848152602001908152602001600020549050600081146139a3576000600182039050600060018660000180549050039050600086600001828154811061391257fe5b906000526020600020015490508087600001848154811061392f57fe5b906000526020600020018190555060018301876001016000838152602001908152602001600020819055508660000180548061396757fe5b600190038181906000526020600020016000905590558660010160008781526020019081526020016000206000905560019450505050506139a9565b60009150505b92915050565b6000808460010160008581526020019081526020016000205490506000811415613a5657846000016040518060400160405280868152602001858152509080600181540180825580915050600190039060005260206000209060020201600090919091909150600082015181600001556020820151816001015550508460000180549050856001016000868152602001908152602001600020819055506001915050613a84565b82856000016001830381548110613a6957fe5b90600052602060002090600202016001018190555060009150505b9392505050565b600080823b905060008111915050919050565b6060613aad8484600085613ab6565b90509392505050565b606082471015613b11576040517f08c379a0000000000000000000000000000000000000000000000000000000008152600401808060200182810382526026815260200180613ec86026913960400191505060405180910390fd5b613b1a85613a8b565b613b8c576040517f08c379a000000000000000000000000000000000000000000000000000000000815260040180806020018281038252601d8152602001807f416464726573733a2063616c6c20746f206e6f6e2d636f6e747261637400000081525060200191505060405180910390fd5b600060608673ffffffffffffffffffffffffffffffffffffffff1685876040518082805190602001908083835b60208310613bdc5780518252602082019150602081019050602083039250613bb9565b6001836020036101000a03801982511681845116808217855250505050505090500191505060006040518083038185875af1925050503d8060008114613c3e576040519150601f19603f3d011682016040523d82523d6000602084013e613c43565b606091505b5091509150613c53828286613c5f565b92505050949350505050565b60608315613c6f57829050613d24565b600083511115613c825782518084602001fd5b816040517f08c379a00000000000000000000000000000000000000000000000000000000081526004018080602001828103825283818151815260200191508051906020019080838360005b83811015613ce9578082015181840152602081019050613cce565b50505050905090810190601f168015613d165780820380516001836020036101000a031916815260200191505b509250505060405180910390fd5b9392505050565b828054600181600116156101000203166002900490600052602060002090601f016020900481019282613d615760008555613da8565b82601f10613d7a57805160ff1916838001178555613da8565b82800160010185558215613da8579182015b82811115613da7578251825591602001919060010190613d8c565b5b509050613db59190613db9565b5090565b5b80821115613dd2576000816000905550600101613dba565b509056fe456e756d657261626c655365743a20696e646578206f7574206f6620626f756e6473416363657373436f6e74726f6c3a2073656e646572206d75737420626520616e2061646d696e20746f206772616e744552433732313a207472616e7366657220746f206e6f6e20455243373231526563656976657220696d706c656d656e746572416c676f5061696e746572477765694974656d3a20496e76616c6964206d73672e73656e646572416c676f5061696e746572477765694974656d3a20496e76616c696420416d6f756e744552433732313a207472616e7366657220746f20746865207a65726f2061646472657373416464726573733a20696e73756666696369656e742062616c616e636520666f722063616c6c4552433732313a206f70657261746f7220717565727920666f72206e6f6e6578697374656e7420746f6b656e416363657373436f6e74726f6c3a2073656e646572206d75737420626520616e2061646d696e20746f207265766f6b654552433732313a20617070726f76652063616c6c6572206973206e6f74206f776e6572206e6f7220617070726f76656420666f7220616c6c4552433732313a2062616c616e636520717565727920666f7220746865207a65726f20616464726573734552433732313a206f776e657220717565727920666f72206e6f6e6578697374656e7420746f6b656e456e756d657261626c654d61703a20696e646578206f7574206f6620626f756e6473416c676f5061696e746572477765694974656d3a494e56414c49445f5349474e41545552454552433732313a20617070726f76656420717565727920666f72206e6f6e6578697374656e7420746f6b656e4552433732314d657461646174613a2055524920736574206f66206e6f6e6578697374656e7420746f6b656e4552433732313a207472616e73666572206f6620746f6b656e2074686174206973206e6f74206f776e4552433732314d657461646174613a2055524920717565727920666f72206e6f6e6578697374656e7420746f6b656e416c676f5061696e746572477765694974656d3a20416c7265616479207265676973746572656421416c676f5061696e746572477765694974656d3a20477765692069732072657469726564214552433732313a20617070726f76616c20746f2063757272656e74206f776e65724552433732313a207472616e736665722063616c6c6572206973206e6f74206f776e6572206e6f7220617070726f766564416c676f5061696e746572477765694974656d3a494e56414c49445f56414c494441544f52416363657373436f6e74726f6c3a2063616e206f6e6c792072656e6f756e636520726f6c657320666f722073656c66a2646970667358221220fe5b97723e08f8dd381ebc19ff742a8bbcb79a352d80876a958707e3673321f964736f6c63430007040033",
  "immutableReferences": {},
  "source": "// SPDX-License-Identifier: GPL-v3\npragma solidity >=0.6.0;\n\nimport \"@openzeppelin/contracts/token/ERC721/ERC721.sol\";\nimport \"@openzeppelin/contracts/utils/Counters.sol\";\n\nimport \"./AlgoPainterAccessControl.sol\";\n\ncontract AlgoPainterGweiItem is AlgoPainterAccessControl, ERC721 {\n    using Counters for Counters.Counter;\n    Counters.Counter private _tokenIds;\n\n    mapping(bytes32 => uint256) hashes;\n\n    address payable owner;\n    uint256 paintings;\n    uint256 minimumAmount;\n\n    event NewPaint(\n        uint256 indexed tokenId,\n        address indexed owner,\n        bytes32 indexed hash\n    );\n\n    constructor() ERC721(\"Algo Painter Gwei Item\", \"APGI\") {\n        owner = msg.sender;\n    }\n\n    function hashData(uint256 tokenId, string memory tokenURI)\n        public\n        pure\n        returns (bytes32)\n    {\n        return keccak256(abi.encodePacked(tokenId, tokenURI));\n    }\n\n    function hashMint(bytes32 hash, string memory tokenURI)\n        public\n        pure\n        returns (bytes32)\n    {\n        return keccak256(abi.encodePacked(hash, tokenURI));\n    }\n\n    /**\n     * @notice Recover signer address from a message by using his signature\n     * @param hash bytes32 message, the hash is the signed message. What is recovered is the signer address.\n     * @param sig bytes signature, the signature is generated using web3.eth.sign()\n     */\n    function recover(bytes32 hash, bytes memory sig)\n        public\n        pure\n        returns (address)\n    {\n        bytes32 r;\n        bytes32 s;\n        uint8 v;\n\n        //Check the signature length\n        if (sig.length != 65) {\n            return (address(0));\n        }\n\n        // Divide the signature in r, s and v variables\n        assembly {\n            r := mload(add(sig, 32))\n            s := mload(add(sig, 64))\n            v := byte(0, mload(add(sig, 96)))\n        }\n\n        // Version of signature should be 27 or 28, but 0 and 1 are also possible versions\n        if (v < 27) {\n            v += 27;\n        }\n\n        // If the version is correct return the signer address\n        if (v != 27 && v != 28) {\n            return (address(0));\n        } else {\n            bytes memory prefix = \"\\x19Ethereum Signed Message:\\n32\";\n            bytes32 prefixedHash = keccak256(abi.encodePacked(prefix, hash));\n            return ecrecover(prefixedHash, v, r, s);\n        }\n    }\n\n    function getMinimumAmount() public view returns (uint256) {\n        return minimumAmount + 0.01 ether;\n    }\n\n    function mint(bytes32 hash, string memory tokenURI)\n        public\n        payable\n        returns (uint256)\n    {\n        require(hashes[hash] == 0, \"AlgoPainterGweiItem: Already registered!\");\n        require(paintings < 1000, \"AlgoPainterGweiItem: Gwei is retired!\");\n\n        uint256 minAmount = getMinimumAmount();\n        require(msg.value >= minAmount, \"AlgoPainterGweiItem: Invalid Amount\");\n\n        _tokenIds.increment();\n        minimumAmount = msg.value;\n\n        uint256 newItemId = _tokenIds.current();\n        _mint(msg.sender, newItemId);\n        _setTokenURI(newItemId, tokenURI);\n\n        hashes[hash] = newItemId;\n\n        paintings++;\n\n        emit NewPaint(newItemId, msg.sender, hash);\n\n        return newItemId;\n    }\n\n    function withdraw() public {\n        require(msg.sender == owner, \"AlgoPainterGweiItem: Invalid msg.sender\");\n        owner.transfer(address(this).balance);\n    }\n\n    function getTokenByHash(bytes32 hash) public view returns (uint256) {\n        return hashes[hash];\n    }\n\n    function updateTokenURI(\n        uint256 tokenId,\n        string calldata tokenURI,\n        bytes calldata signature\n    ) public {\n        bytes32 hash = hashData(tokenId, tokenURI);\n        address validator = recover(hash, signature);\n\n        require(\n            validator != address(0),\n            \"AlgoPainterGweiItem:INVALID_SIGNATURE\"\n        );\n        require(\n            hasRole(VALIDATOR_ROLE, validator),\n            \"AlgoPainterGweiItem:INVALID_VALIDATOR\"\n        );\n\n        _setTokenURI(tokenId, tokenURI);\n    }\n}\n",
  "sourcePath": "/Users/gleisson/Documents/algopainter/algopainter-smartcontracts/contracts/AlgoPainterGweiItem.sol",
  "compiler": {
    "name": "solc",
    "version": "0.7.4+commit.3f05b770.Emscripten.clang"
  },
  "schemaVersion": "3.3.3",
  "updatedAt": "2021-03-21T13:16:59.397Z",
  "networkType": "ethereum",
  "devdoc": {
    "kind": "dev",
    "methods": {
      "approve(address,uint256)": {
        "details": "See {IERC721-approve}."
      },
      "balanceOf(address)": {
        "details": "See {IERC721-balanceOf}."
      },
      "baseURI()": {
        "details": "Returns the base URI set via {_setBaseURI}. This will be automatically added as a prefix in {tokenURI} to each token's URI, or to the token ID if no specific URI is set for that token ID."
      },
      "getApproved(uint256)": {
        "details": "See {IERC721-getApproved}."
      },
      "getRoleAdmin(bytes32)": {
        "details": "Returns the admin role that controls `role`. See {grantRole} and {revokeRole}. To change a role's admin, use {_setRoleAdmin}."
      },
      "getRoleMember(bytes32,uint256)": {
        "details": "Returns one of the accounts that have `role`. `index` must be a value between 0 and {getRoleMemberCount}, non-inclusive. Role bearers are not sorted in any particular way, and their ordering may change at any point. WARNING: When using {getRoleMember} and {getRoleMemberCount}, make sure you perform all queries on the same block. See the following https://forum.openzeppelin.com/t/iterating-over-elements-on-enumerableset-in-openzeppelin-contracts/2296[forum post] for more information."
      },
      "getRoleMemberCount(bytes32)": {
        "details": "Returns the number of accounts that have `role`. Can be used together with {getRoleMember} to enumerate all bearers of a role."
      },
      "grantRole(bytes32,address)": {
        "details": "Grants `role` to `account`. If `account` had not been already granted `role`, emits a {RoleGranted} event. Requirements: - the caller must have ``role``'s admin role."
      },
      "hasRole(bytes32,address)": {
        "details": "Returns `true` if `account` has been granted `role`."
      },
      "isApprovedForAll(address,address)": {
        "details": "See {IERC721-isApprovedForAll}."
      },
      "name()": {
        "details": "See {IERC721Metadata-name}."
      },
      "ownerOf(uint256)": {
        "details": "See {IERC721-ownerOf}."
      },
      "recover(bytes32,bytes)": {
        "params": {
          "hash": "bytes32 message, the hash is the signed message. What is recovered is the signer address.",
          "sig": "bytes signature, the signature is generated using web3.eth.sign()"
        }
      },
      "renounceRole(bytes32,address)": {
        "details": "Revokes `role` from the calling account. Roles are often managed via {grantRole} and {revokeRole}: this function's purpose is to provide a mechanism for accounts to lose their privileges if they are compromised (such as when a trusted device is misplaced). If the calling account had been granted `role`, emits a {RoleRevoked} event. Requirements: - the caller must be `account`."
      },
      "revokeRole(bytes32,address)": {
        "details": "Revokes `role` from `account`. If `account` had been granted `role`, emits a {RoleRevoked} event. Requirements: - the caller must have ``role``'s admin role."
      },
      "safeTransferFrom(address,address,uint256)": {
        "details": "See {IERC721-safeTransferFrom}."
      },
      "safeTransferFrom(address,address,uint256,bytes)": {
        "details": "See {IERC721-safeTransferFrom}."
      },
      "setApprovalForAll(address,bool)": {
        "details": "See {IERC721-setApprovalForAll}."
      },
      "supportsInterface(bytes4)": {
        "details": "See {IERC165-supportsInterface}. Time complexity O(1), guaranteed to always use less than 30 000 gas."
      },
      "symbol()": {
        "details": "See {IERC721Metadata-symbol}."
      },
      "tokenByIndex(uint256)": {
        "details": "See {IERC721Enumerable-tokenByIndex}."
      },
      "tokenOfOwnerByIndex(address,uint256)": {
        "details": "See {IERC721Enumerable-tokenOfOwnerByIndex}."
      },
      "tokenURI(uint256)": {
        "details": "See {IERC721Metadata-tokenURI}."
      },
      "totalSupply()": {
        "details": "See {IERC721Enumerable-totalSupply}."
      },
      "transferFrom(address,address,uint256)": {
        "details": "See {IERC721-transferFrom}."
      }
    },
    "version": 1
  },
  "userdoc": {
    "kind": "user",
    "methods": {
      "recover(bytes32,bytes)": {
        "notice": "Recover signer address from a message by using his signature"
      }
    },
    "version": 1
  }
}